{
  "abi": [
    {
      "type": "constructor",
      "inputs": [
        {
          "name": "_roomCreationFee",
          "type": "uint256",
          "internalType": "uint256"
        }
      ],
      "stateMutability": "nonpayable"
    },
    {
      "type": "function",
      "name": "SUBSCRIPTION_PERIOD",
      "inputs": [],
      "outputs": [
        {
          "name": "",
          "type": "uint256",
          "internalType": "uint256"
        }
      ],
      "stateMutability": "view"
    },
    {
      "type": "function",
      "name": "approve",
      "inputs": [
        {
          "name": "to",
          "type": "address",
          "internalType": "address"
        },
        {
          "name": "tokenId",
          "type": "uint256",
          "internalType": "uint256"
        }
      ],
      "outputs": [],
      "stateMutability": "nonpayable"
    },
    {
      "type": "function",
      "name": "balanceOf",
      "inputs": [
        {
          "name": "owner",
          "type": "address",
          "internalType": "address"
        }
      ],
      "outputs": [
        {
          "name": "",
          "type": "uint256",
          "internalType": "uint256"
        }
      ],
      "stateMutability": "view"
    },
    {
      "type": "function",
      "name": "cancelSubscription",
      "inputs": [
        {
          "name": "roomId",
          "type": "uint256",
          "internalType": "uint256"
        }
      ],
      "outputs": [],
      "stateMutability": "nonpayable"
    },
    {
      "type": "function",
      "name": "createRoom",
      "inputs": [
        {
          "name": "isPublic",
          "type": "bool",
          "internalType": "bool"
        },
        {
          "name": "subscriptionFee",
          "type": "uint256",
          "internalType": "uint256"
        },
        {
          "name": "subscriptionToken",
          "type": "address",
          "internalType": "address"
        }
      ],
      "outputs": [
        {
          "name": "",
          "type": "uint256",
          "internalType": "uint256"
        }
      ],
      "stateMutability": "payable"
    },
    {
      "type": "function",
      "name": "getApproved",
      "inputs": [
        {
          "name": "tokenId",
          "type": "uint256",
          "internalType": "uint256"
        }
      ],
      "outputs": [
        {
          "name": "",
          "type": "address",
          "internalType": "address"
        }
      ],
      "stateMutability": "view"
    },
    {
      "type": "function",
      "name": "getRoomDetails",
      "inputs": [
        {
          "name": "roomId",
          "type": "uint256",
          "internalType": "uint256"
        }
      ],
      "outputs": [
        {
          "name": "",
          "type": "tuple",
          "internalType": "struct ChowliveRoom.Room",
          "components": [
            {
              "name": "id",
              "type": "uint256",
              "internalType": "uint256"
            },
            {
              "name": "subscriptionFee",
              "type": "uint256",
              "internalType": "uint256"
            },
            {
              "name": "subscriptionToken",
              "type": "address",
              "internalType": "address"
            },
            {
              "name": "isPublic",
              "type": "bool",
              "internalType": "bool"
            }
          ]
        }
      ],
      "stateMutability": "view"
    },
    {
      "type": "function",
      "name": "getUserActiveSubscriptions",
      "inputs": [
        {
          "name": "user",
          "type": "address",
          "internalType": "address"
        }
      ],
      "outputs": [
        {
          "name": "",
          "type": "uint256[]",
          "internalType": "uint256[]"
        }
      ],
      "stateMutability": "view"
    },
    {
      "type": "function",
      "name": "getUserSubscribedRooms",
      "inputs": [
        {
          "name": "user",
          "type": "address",
          "internalType": "address"
        }
      ],
      "outputs": [
        {
          "name": "",
          "type": "uint256[]",
          "internalType": "uint256[]"
        }
      ],
      "stateMutability": "view"
    },
    {
      "type": "function",
      "name": "hasAccess",
      "inputs": [
        {
          "name": "user",
          "type": "address",
          "internalType": "address"
        },
        {
          "name": "roomId",
          "type": "uint256",
          "internalType": "uint256"
        }
      ],
      "outputs": [
        {
          "name": "",
          "type": "bool",
          "internalType": "bool"
        }
      ],
      "stateMutability": "view"
    },
    {
      "type": "function",
      "name": "isApprovedForAll",
      "inputs": [
        {
          "name": "owner",
          "type": "address",
          "internalType": "address"
        },
        {
          "name": "operator",
          "type": "address",
          "internalType": "address"
        }
      ],
      "outputs": [
        {
          "name": "",
          "type": "bool",
          "internalType": "bool"
        }
      ],
      "stateMutability": "view"
    },
    {
      "type": "function",
      "name": "lastRoomID",
      "inputs": [],
      "outputs": [
        {
          "name": "",
          "type": "uint256",
          "internalType": "uint256"
        }
      ],
      "stateMutability": "view"
    },
    {
      "type": "function",
      "name": "messenger",
      "inputs": [],
      "outputs": [
        {
          "name": "",
          "type": "address",
          "internalType": "contract ITeleporterMessenger"
        }
      ],
      "stateMutability": "view"
    },
    {
      "type": "function",
      "name": "name",
      "inputs": [],
      "outputs": [
        {
          "name": "",
          "type": "string",
          "internalType": "string"
        }
      ],
      "stateMutability": "view"
    },
    {
      "type": "function",
      "name": "owner",
      "inputs": [],
      "outputs": [
        {
          "name": "",
          "type": "address",
          "internalType": "address"
        }
      ],
      "stateMutability": "view"
    },
    {
      "type": "function",
      "name": "ownerOf",
      "inputs": [
        {
          "name": "tokenId",
          "type": "uint256",
          "internalType": "uint256"
        }
      ],
      "outputs": [
        {
          "name": "",
          "type": "address",
          "internalType": "address"
        }
      ],
      "stateMutability": "view"
    },
    {
      "type": "function",
      "name": "paymentReceiverContract",
      "inputs": [],
      "outputs": [
        {
          "name": "",
          "type": "address",
          "internalType": "address"
        }
      ],
      "stateMutability": "view"
    },
    {
      "type": "function",
      "name": "receiveTeleporterMessage",
      "inputs": [
        {
          "name": "",
          "type": "bytes32",
          "internalType": "bytes32"
        },
        {
          "name": "",
          "type": "address",
          "internalType": "address"
        },
        {
          "name": "message",
          "type": "bytes",
          "internalType": "bytes"
        }
      ],
      "outputs": [],
      "stateMutability": "nonpayable"
    },
    {
      "type": "function",
      "name": "renounceOwnership",
      "inputs": [],
      "outputs": [],
      "stateMutability": "nonpayable"
    },
    {
      "type": "function",
      "name": "roomCreationFee",
      "inputs": [],
      "outputs": [
        {
          "name": "",
          "type": "uint256",
          "internalType": "uint256"
        }
      ],
      "stateMutability": "view"
    },
    {
      "type": "function",
      "name": "roomExists",
      "inputs": [
        {
          "name": "roomId",
          "type": "uint256",
          "internalType": "uint256"
        }
      ],
      "outputs": [
        {
          "name": "",
          "type": "bool",
          "internalType": "bool"
        }
      ],
      "stateMutability": "view"
    },
    {
      "type": "function",
      "name": "rooms",
      "inputs": [
        {
          "name": "",
          "type": "uint256",
          "internalType": "uint256"
        }
      ],
      "outputs": [
        {
          "name": "id",
          "type": "uint256",
          "internalType": "uint256"
        },
        {
          "name": "subscriptionFee",
          "type": "uint256",
          "internalType": "uint256"
        },
        {
          "name": "subscriptionToken",
          "type": "address",
          "internalType": "address"
        },
        {
          "name": "isPublic",
          "type": "bool",
          "internalType": "bool"
        }
      ],
      "stateMutability": "view"
    },
    {
      "type": "function",
      "name": "safeTransferFrom",
      "inputs": [
        {
          "name": "from",
          "type": "address",
          "internalType": "address"
        },
        {
          "name": "to",
          "type": "address",
          "internalType": "address"
        },
        {
          "name": "tokenId",
          "type": "uint256",
          "internalType": "uint256"
        }
      ],
      "outputs": [],
      "stateMutability": "nonpayable"
    },
    {
      "type": "function",
      "name": "safeTransferFrom",
      "inputs": [
        {
          "name": "from",
          "type": "address",
          "internalType": "address"
        },
        {
          "name": "to",
          "type": "address",
          "internalType": "address"
        },
        {
          "name": "tokenId",
          "type": "uint256",
          "internalType": "uint256"
        },
        {
          "name": "data",
          "type": "bytes",
          "internalType": "bytes"
        }
      ],
      "outputs": [],
      "stateMutability": "nonpayable"
    },
    {
      "type": "function",
      "name": "setApprovalForAll",
      "inputs": [
        {
          "name": "operator",
          "type": "address",
          "internalType": "address"
        },
        {
          "name": "approved",
          "type": "bool",
          "internalType": "bool"
        }
      ],
      "outputs": [],
      "stateMutability": "nonpayable"
    },
    {
      "type": "function",
      "name": "setPaymentReceiverContract",
      "inputs": [
        {
          "name": "_paymentReceiverContract",
          "type": "address",
          "internalType": "address"
        }
      ],
      "outputs": [],
      "stateMutability": "nonpayable"
    },
    {
      "type": "function",
      "name": "supportsInterface",
      "inputs": [
        {
          "name": "interfaceId",
          "type": "bytes4",
          "internalType": "bytes4"
        }
      ],
      "outputs": [
        {
          "name": "",
          "type": "bool",
          "internalType": "bool"
        }
      ],
      "stateMutability": "view"
    },
    {
      "type": "function",
      "name": "symbol",
      "inputs": [],
      "outputs": [
        {
          "name": "",
          "type": "string",
          "internalType": "string"
        }
      ],
      "stateMutability": "view"
    },
    {
      "type": "function",
      "name": "tokenURI",
      "inputs": [
        {
          "name": "tokenId",
          "type": "uint256",
          "internalType": "uint256"
        }
      ],
      "outputs": [
        {
          "name": "",
          "type": "string",
          "internalType": "string"
        }
      ],
      "stateMutability": "view"
    },
    {
      "type": "function",
      "name": "transferFrom",
      "inputs": [
        {
          "name": "from",
          "type": "address",
          "internalType": "address"
        },
        {
          "name": "to",
          "type": "address",
          "internalType": "address"
        },
        {
          "name": "tokenId",
          "type": "uint256",
          "internalType": "uint256"
        }
      ],
      "outputs": [],
      "stateMutability": "nonpayable"
    },
    {
      "type": "function",
      "name": "transferOwnership",
      "inputs": [
        {
          "name": "newOwner",
          "type": "address",
          "internalType": "address"
        }
      ],
      "outputs": [],
      "stateMutability": "nonpayable"
    },
    {
      "type": "function",
      "name": "updateRoomCreationFee",
      "inputs": [
        {
          "name": "newFee",
          "type": "uint256",
          "internalType": "uint256"
        }
      ],
      "outputs": [],
      "stateMutability": "nonpayable"
    },
    {
      "type": "function",
      "name": "userSubscriptions",
      "inputs": [
        {
          "name": "",
          "type": "address",
          "internalType": "address"
        },
        {
          "name": "",
          "type": "uint256",
          "internalType": "uint256"
        }
      ],
      "outputs": [
        {
          "name": "",
          "type": "uint256",
          "internalType": "uint256"
        }
      ],
      "stateMutability": "view"
    },
    {
      "type": "function",
      "name": "withdrawPEARL",
      "inputs": [],
      "outputs": [],
      "stateMutability": "nonpayable"
    },
    {
      "type": "event",
      "name": "Approval",
      "inputs": [
        {
          "name": "owner",
          "type": "address",
          "indexed": true,
          "internalType": "address"
        },
        {
          "name": "approved",
          "type": "address",
          "indexed": true,
          "internalType": "address"
        },
        {
          "name": "tokenId",
          "type": "uint256",
          "indexed": true,
          "internalType": "uint256"
        }
      ],
      "anonymous": false
    },
    {
      "type": "event",
      "name": "ApprovalForAll",
      "inputs": [
        {
          "name": "owner",
          "type": "address",
          "indexed": true,
          "internalType": "address"
        },
        {
          "name": "operator",
          "type": "address",
          "indexed": true,
          "internalType": "address"
        },
        {
          "name": "approved",
          "type": "bool",
          "indexed": false,
          "internalType": "bool"
        }
      ],
      "anonymous": false
    },
    {
      "type": "event",
      "name": "OwnershipTransferred",
      "inputs": [
        {
          "name": "previousOwner",
          "type": "address",
          "indexed": true,
          "internalType": "address"
        },
        {
          "name": "newOwner",
          "type": "address",
          "indexed": true,
          "internalType": "address"
        }
      ],
      "anonymous": false
    },
    {
      "type": "event",
      "name": "RoomCreated",
      "inputs": [
        {
          "name": "roomId",
          "type": "uint256",
          "indexed": true,
          "internalType": "uint256"
        },
        {
          "name": "creator",
          "type": "address",
          "indexed": true,
          "internalType": "address"
        },
        {
          "name": "isPublic",
          "type": "bool",
          "indexed": false,
          "internalType": "bool"
        }
      ],
      "anonymous": false
    },
    {
      "type": "event",
      "name": "SubscriptionCancelled",
      "inputs": [
        {
          "name": "user",
          "type": "address",
          "indexed": true,
          "internalType": "address"
        },
        {
          "name": "roomId",
          "type": "uint256",
          "indexed": true,
          "internalType": "uint256"
        }
      ],
      "anonymous": false
    },
    {
      "type": "event",
      "name": "SubscriptionUpdated",
      "inputs": [
        {
          "name": "user",
          "type": "address",
          "indexed": true,
          "internalType": "address"
        },
        {
          "name": "roomId",
          "type": "uint256",
          "indexed": true,
          "internalType": "uint256"
        },
        {
          "name": "expirationTimestamp",
          "type": "uint256",
          "indexed": false,
          "internalType": "uint256"
        }
      ],
      "anonymous": false
    },
    {
      "type": "event",
      "name": "Transfer",
      "inputs": [
        {
          "name": "from",
          "type": "address",
          "indexed": true,
          "internalType": "address"
        },
        {
          "name": "to",
          "type": "address",
          "indexed": true,
          "internalType": "address"
        },
        {
          "name": "tokenId",
          "type": "uint256",
          "indexed": true,
          "internalType": "uint256"
        }
      ],
      "anonymous": false
    },
    {
      "type": "error",
      "name": "ERC721IncorrectOwner",
      "inputs": [
        {
          "name": "sender",
          "type": "address",
          "internalType": "address"
        },
        {
          "name": "tokenId",
          "type": "uint256",
          "internalType": "uint256"
        },
        {
          "name": "owner",
          "type": "address",
          "internalType": "address"
        }
      ]
    },
    {
      "type": "error",
      "name": "ERC721InsufficientApproval",
      "inputs": [
        {
          "name": "operator",
          "type": "address",
          "internalType": "address"
        },
        {
          "name": "tokenId",
          "type": "uint256",
          "internalType": "uint256"
        }
      ]
    },
    {
      "type": "error",
      "name": "ERC721InvalidApprover",
      "inputs": [
        {
          "name": "approver",
          "type": "address",
          "internalType": "address"
        }
      ]
    },
    {
      "type": "error",
      "name": "ERC721InvalidOperator",
      "inputs": [
        {
          "name": "operator",
          "type": "address",
          "internalType": "address"
        }
      ]
    },
    {
      "type": "error",
      "name": "ERC721InvalidOwner",
      "inputs": [
        {
          "name": "owner",
          "type": "address",
          "internalType": "address"
        }
      ]
    },
    {
      "type": "error",
      "name": "ERC721InvalidReceiver",
      "inputs": [
        {
          "name": "receiver",
          "type": "address",
          "internalType": "address"
        }
      ]
    },
    {
      "type": "error",
      "name": "ERC721InvalidSender",
      "inputs": [
        {
          "name": "sender",
          "type": "address",
          "internalType": "address"
        }
      ]
    },
    {
      "type": "error",
      "name": "ERC721NonexistentToken",
      "inputs": [
        {
          "name": "tokenId",
          "type": "uint256",
          "internalType": "uint256"
        }
      ]
    },
    {
      "type": "error",
      "name": "OwnableInvalidOwner",
      "inputs": [
        {
          "name": "owner",
          "type": "address",
          "internalType": "address"
        }
      ]
    },
    {
      "type": "error",
      "name": "OwnableUnauthorizedAccount",
      "inputs": [
        {
          "name": "account",
          "type": "address",
          "internalType": "address"
        }
      ]
    }
  ],
  "bytecode": {
    "object": "0x6080604052600d80546001600160a01b03191673253b2784c75e510dd0ff1da844684a1ac0aa5fcf17905534801561003657600080fd5b5060405161242538038061242583398101604081905261005591610149565b336040518060400160405280600c81526020016b43686f776c697665526f6f6d60a01b8152506040518060400160405280600481526020016343484f5760e01b81525081600090816100a79190610203565b5060016100b48282610203565b5050506001600160a01b0381166100e557604051631e4fbdf760e01b81526000600482015260240160405180910390fd5b6100ee816100f7565b506007556102c2565b600680546001600160a01b038381166001600160a01b0319831681179093556040519116919082907f8be0079c531659141344cd1fd0a4f28419497f9722a3daafe3b4186f6b6457e090600090a35050565b60006020828403121561015b57600080fd5b5051919050565b634e487b7160e01b600052604160045260246000fd5b600181811c9082168061018c57607f821691505b6020821081036101ac57634e487b7160e01b600052602260045260246000fd5b50919050565b601f8211156101fe576000816000526020600020601f850160051c810160208610156101db5750805b601f850160051c820191505b818110156101fa578281556001016101e7565b5050505b505050565b81516001600160401b0381111561021c5761021c610162565b6102308161022a8454610178565b846101b2565b602080601f831160018114610265576000841561024d5750858301515b600019600386901b1c1916600185901b1785556101fa565b600085815260208120601f198616915b8281101561029457888601518255948401946001909101908401610275565b50858210156102b25787850151600019600388901b60f8161c191681555b5050505050600190811b01905550565b612154806102d16000396000f3fe6080604052600436106101f95760003560e01c80636352211e1161010d578063c6530e41116100a0578063c95d6edc1161006f578063c95d6edc14610663578063cca514541461069b578063e985e9c5146106ae578063f21aa485146106ce578063f2fde38b146106e457600080fd5b8063c6530e41146105ed578063c6dcaf6c1461060d578063c868efaa14610623578063c87b56dd1461064357600080fd5b806395d89b41116100dc57806395d89b4114610578578063a22cb4651461058d578063af6c0b64146105ad578063b88d4fde146105cd57600080fd5b80636352211e1461050557806370a0823114610525578063715018a6146105455780638da5cb5b1461055a57600080fd5b8063294550de116101905780633cb747bf1161015f5780633cb747bf146104445780633d084a801461046457806342842e0e146104935780634e3111c9146104b35780634ea1dc5e146104e057600080fd5b8063294550de1461038657806330480537146103e45780633149a5591461040457806331d297271461042457600080fd5b80631373b519116101cc5780631373b519146102af5780631bae0ac8146102c4578063212350831461034657806323b872dd1461036657600080fd5b806301ffc9a7146101fe57806306fdde0314610233578063081812fc14610255578063095ea7b31461028d575b600080fd5b34801561020a57600080fd5b5061021e610219366004611bd2565b610704565b60405190151581526020015b60405180910390f35b34801561023f57600080fd5b50610248610756565b60405161022a9190611c3f565b34801561026157600080fd5b50610275610270366004611c52565b6107e8565b6040516001600160a01b03909116815260200161022a565b34801561029957600080fd5b506102ad6102a8366004611c80565b610811565b005b3480156102bb57600080fd5b506102ad610820565b3480156102d057600080fd5b506103156102df366004611c52565b600a602052600090815260409020805460018201546002909201549091906001600160a01b03811690600160a01b900460ff1684565b60405161022a949392919093845260208401929092526001600160a01b031660408301521515606082015260800190565b34801561035257600080fd5b506102ad610361366004611c52565b6108ac565b34801561037257600080fd5b506102ad610381366004611cac565b610a4f565b34801561039257600080fd5b506103a66103a1366004611c52565b610ada565b60405161022a919081518152602080830151908201526040808301516001600160a01b03169082015260609182015115159181019190915260800190565b3480156103f057600080fd5b506102ad6103ff366004611c52565b610ba4565b34801561041057600080fd5b50600954610275906001600160a01b031681565b34801561043057600080fd5b506102ad61043f366004611ced565b610bb1565b34801561045057600080fd5b50600d54610275906001600160a01b031681565b34801561047057600080fd5b5061021e61047f366004611c52565b6000908152600a6020526040902054151590565b34801561049f57600080fd5b506102ad6104ae366004611cac565b610bdb565b3480156104bf57600080fd5b506104d36104ce366004611ced565b610bfb565b60405161022a9190611d0a565b3480156104ec57600080fd5b506104f762278d0081565b60405190815260200161022a565b34801561051157600080fd5b50610275610520366004611c52565b610c67565b34801561053157600080fd5b506104f7610540366004611ced565b610c72565b34801561055157600080fd5b506102ad610cba565b34801561056657600080fd5b506006546001600160a01b0316610275565b34801561058457600080fd5b50610248610cce565b34801561059957600080fd5b506102ad6105a8366004611d63565b610cdd565b3480156105b957600080fd5b506104d36105c8366004611ced565b610ce8565b3480156105d957600080fd5b506102ad6105e8366004611dae565b610e22565b3480156105f957600080fd5b5061021e610608366004611c80565b610e39565b34801561061957600080fd5b506104f760075481565b34801561062f57600080fd5b506102ad61063e366004611e8e565b610e8d565b34801561064f57600080fd5b5061024861065e366004611c52565b610ebc565b34801561066f57600080fd5b506104f761067e366004611c80565b600c60209081526000928352604080842090915290825290205481565b6104f76106a9366004611f17565b610f31565b3480156106ba57600080fd5b5061021e6106c9366004611f57565b6111a7565b3480156106da57600080fd5b506104f760085481565b3480156106f057600080fd5b506102ad6106ff366004611ced565b6111d5565b60006001600160e01b031982166380ac58cd60e01b148061073557506001600160e01b03198216635b5e139f60e01b145b8061075057506301ffc9a760e01b6001600160e01b03198316145b92915050565b60606000805461076590611f90565b80601f016020809104026020016040519081016040528092919081815260200182805461079190611f90565b80156107de5780601f106107b3576101008083540402835291602001916107de565b820191906000526020600020905b8154815290600101906020018083116107c157829003601f168201915b5050505050905090565b60006107f382611213565b506000828152600460205260409020546001600160a01b0316610750565b61081c82823361124c565b5050565b610828611259565b47806108725760405162461bcd60e51b81526020600482015260146024820152734e6f20504541524c20746f20776974686472617760601b60448201526064015b60405180910390fd5b6006546040516001600160a01b039091169082156108fc029083906000818181858888f1935050505015801561081c573d6000803e3d6000fd5b336000908152600c6020908152604080832084845290915290205461090c5760405162461bcd60e51b815260206004820152601660248201527527379030b1ba34bb329039bab139b1b934b83a34b7b760511b6044820152606401610869565b336000908152600c6020908152604080832084845290915281208190555b336000908152600b6020526040902054811015610a1e57336000908152600b6020526040902080548391908390811061096557610965611fca565b906000526020600020015403610a1657336000908152600b60205260409020805461099290600190611ff6565b815481106109a2576109a2611fca565b6000918252602080832090910154338352600b90915260409091208054839081106109cf576109cf611fca565b6000918252602080832090910192909255338152600b909152604090208054806109fb576109fb612009565b60019003818190600052602060002001600090559055610a1e565b60010161092a565b50604051819033907f06aa12c0ad65927b4a753d119c26e490d3c4a4e11cb631b43131a709dc1e591790600090a350565b6001600160a01b038216610a7957604051633250574960e11b815260006004820152602401610869565b6000610a86838333611286565b9050836001600160a01b0316816001600160a01b031614610ad4576040516364283d7b60e01b81526001600160a01b0380861660048301526024820184905282166044820152606401610869565b50505050565b6040805160808101825260008082526020820181905291810182905260608101919091526000828152600a6020526040902054610b4f5760405162461bcd60e51b8152602060048201526013602482015272149bdbdb48191bd95cc81b9bdd08195e1a5cdd606a1b6044820152606401610869565b506000908152600a6020908152604091829020825160808101845281548152600182015492810192909252600201546001600160a01b03811692820192909252600160a01b90910460ff161515606082015290565b610bac611259565b600755565b610bb9611259565b600980546001600160a01b0319166001600160a01b0392909216919091179055565b610bf683838360405180602001604052806000815250610e22565b505050565b6001600160a01b0381166000908152600b6020908152604091829020805483518184028101840190945280845260609392830182828015610c5b57602002820191906000526020600020905b815481526020019060010190808311610c47575b50505050509050919050565b600061075082611213565b60006001600160a01b038216610c9e576040516322718ad960e21b815260006004820152602401610869565b506001600160a01b031660009081526003602052604090205490565b610cc2611259565b610ccc600061137f565b565b60606001805461076590611f90565b61081c3383836113d1565b6001600160a01b0381166000908152600b60209081526040808320805482518185028101850190935280835260609493830182828015610d4757602002820191906000526020600020905b815481526020019060010190808311610d33575b505050505090506000815167ffffffffffffffff811115610d6a57610d6a611d98565b604051908082528060200260200182016040528015610d93578160200160208202803683370190505b5090506000805b8351811015610e1857610dc686858381518110610db957610db9611fca565b6020026020010151610e39565b15610e1057838181518110610ddd57610ddd611fca565b6020026020010151838381518110610df757610df7611fca565b602090810291909101015281610e0c8161201f565b9250505b600101610d9a565b5081529392505050565b610e2d848484610a4f565b610ad484848484611470565b6000818152600a6020526040812060020154600160a01b900460ff1615610e6257506001610750565b506001600160a01b03919091166000908152600c602090815260408083209383529290522054421090565b6000808080610e9e85870187612038565b9350935093509350610eb284848484611599565b5050505050505050565b6060610ec782611213565b506000610edf60408051602081019091526000815290565b90506000815111610eff5760405180602001604052806000815250610f2a565b80610f09846117a2565b604051602001610f1a929190612082565b6040516020818303038152906040525b9392505050565b6000600754341015610f855760405162461bcd60e51b815260206004820152601760248201527f496e73756666696369656e7420504541524c2073656e740000000000000000006044820152606401610869565b8315611058578215610fec5760405162461bcd60e51b815260206004820152602a60248201527f5075626c696320726f6f6d73206d7573742068617665206e6f20737562736372604482015269697074696f6e2066656560b01b6064820152608401610869565b6001600160a01b038216156110585760405162461bcd60e51b815260206004820152602c60248201527f5075626c696320726f6f6d73206d7573742068617665206e6f2073756273637260448201526b34b83a34b7b7103a37b5b2b760a11b6064820152608401610869565b60006008600081546110699061201f565b9182905550905061107a3382611835565b6040805160808101825282815260208082018781526001600160a01b038781168486019081528a1515606086018181526000898152600a875288812097518855945160018089019190915592516002909701805491511515600160a01b026001600160a81b031990921697909416969096179590951790915533808352600c845285832087845284528583206000199055808352600b84528583208054928301815583529183902001859055925191825283917f9885ea126188c43cc329e45aa9539d799811f0c00053a8f1db943aad926551e2910160405180910390a360075434111561119f5760075433906108fc906111759034611ff6565b6040518115909202916000818181858888f1935050505015801561119d573d6000803e3d6000fd5b505b949350505050565b6001600160a01b03918216600090815260056020908152604080832093909416825291909152205460ff1690565b6111dd611259565b6001600160a01b03811661120757604051631e4fbdf760e01b815260006004820152602401610869565b6112108161137f565b50565b6000818152600260205260408120546001600160a01b03168061075057604051637e27328960e01b815260048101849052602401610869565b610bf6838383600161189a565b6006546001600160a01b03163314610ccc5760405163118cdaa760e01b8152336004820152602401610869565b6000828152600260205260408120546001600160a01b03908116908316156112b3576112b38184866119a0565b6001600160a01b038116156112f1576112d060008560008061189a565b6001600160a01b038116600090815260036020526040902080546000190190555b6001600160a01b03851615611320576001600160a01b0385166000908152600360205260409020805460010190555b60008481526002602052604080822080546001600160a01b0319166001600160a01b0389811691821790925591518793918516917fddf252ad1be2c89b69c2b068fc378daa952ba7f163c4a11628f55a4df523b3ef91a4949350505050565b600680546001600160a01b038381166001600160a01b0319831681179093556040519116919082907f8be0079c531659141344cd1fd0a4f28419497f9722a3daafe3b4186f6b6457e090600090a35050565b6001600160a01b03821661140357604051630b61174360e31b81526001600160a01b0383166004820152602401610869565b6001600160a01b03838116600081815260056020908152604080832094871680845294825291829020805460ff191686151590811790915591519182527f17307eab39ab6107e8899845ad3d59bd9653f200f220920489ca2b5937696c31910160405180910390a3505050565b6001600160a01b0383163b15610ad457604051630a85bd0160e11b81526001600160a01b0384169063150b7a02906114b29033908890879087906004016120b1565b6020604051808303816000875af19250505080156114ed575060408051601f3d908101601f191682019092526114ea918101906120ee565b60015b611556573d80801561151b576040519150601f19603f3d011682016040523d82523d6000602084013e611520565b606091505b50805160000361154e57604051633250574960e11b81526001600160a01b0385166004820152602401610869565b805181602001fd5b6001600160e01b03198116630a85bd0160e11b1461159257604051633250574960e11b81526001600160a01b0385166004820152602401610869565b5050505050565b6000838152600a602090815260409182902082516080810184528154815260018201549281018390526002909101546001600160a01b03811693820193909352600160a01b90920460ff161515606083015283146116435760405162461bcd60e51b815260206004820152602160248201527f496e636f727265637420737562736372697074696f6e2066656520616d6f756e6044820152601d60fa1b6064820152608401610869565b80604001516001600160a01b0316826001600160a01b0316146116a85760405162461bcd60e51b815260206004820152601c60248201527f496e636f727265637420737562736372697074696f6e20746f6b656e000000006044820152606401610869565b6001600160a01b0385166000908152600c60209081526040808320878452909152812054904282106116e6576116e162278d008361210b565b6116f3565b6116f362278d004261210b565b6001600160a01b0388166000908152600c602090815260408083208a8452909152902081905590506117258787611a04565b611755576001600160a01b0387166000908152600b60209081526040822080546001810182559083529120018690555b85876001600160a01b03167f8a7841d9a6944c96ce47d4b1fee6f23d6d297648fbc002439e23ddcdf0b1ca2c8360405161179191815260200190565b60405180910390a350505050505050565b606060006117af83611a81565b600101905060008167ffffffffffffffff8111156117cf576117cf611d98565b6040519080825280601f01601f1916602001820160405280156117f9576020820181803683370190505b5090508181016020015b600019016f181899199a1a9b1b9c1cb0b131b232b360811b600a86061a8153600a850494508461180357509392505050565b6001600160a01b03821661185f57604051633250574960e11b815260006004820152602401610869565b600061186d83836000611286565b90506001600160a01b03811615610bf6576040516339e3563760e11b815260006004820152602401610869565b80806118ae57506001600160a01b03821615155b156119705760006118be84611213565b90506001600160a01b038316158015906118ea5750826001600160a01b0316816001600160a01b031614155b80156118fd57506118fb81846111a7565b155b156119265760405163a9fbf51f60e01b81526001600160a01b0384166004820152602401610869565b811561196e5783856001600160a01b0316826001600160a01b03167f8c5be1e5ebec7d5bd14f71427d1e84f3dd0314c0f7b2291e5b200ac8c7c3b92560405160405180910390a45b505b5050600090815260046020526040902080546001600160a01b0319166001600160a01b0392909216919091179055565b6119ab838383611b59565b610bf6576001600160a01b0383166119d957604051637e27328960e01b815260048101829052602401610869565b60405163177e802f60e01b81526001600160a01b038316600482015260248101829052604401610869565b6000805b6001600160a01b0384166000908152600b6020526040902054811015611a77576001600160a01b0384166000908152600b60205260409020805484919083908110611a5557611a55611fca565b906000526020600020015403611a6f576001915050610750565b600101611a08565b5060009392505050565b60008072184f03e93ff9f4daa797ed6e38ed64bf6a1f0160401b8310611ac05772184f03e93ff9f4daa797ed6e38ed64bf6a1f0160401b830492506040015b6d04ee2d6d415b85acef81000000008310611aec576d04ee2d6d415b85acef8100000000830492506020015b662386f26fc100008310611b0a57662386f26fc10000830492506010015b6305f5e1008310611b22576305f5e100830492506008015b6127108310611b3657612710830492506004015b60648310611b48576064830492506002015b600a83106107505760010192915050565b60006001600160a01b0383161580159061119f5750826001600160a01b0316846001600160a01b03161480611b935750611b9384846111a7565b8061119f5750506000908152600460205260409020546001600160a01b03908116911614919050565b6001600160e01b03198116811461121057600080fd5b600060208284031215611be457600080fd5b8135610f2a81611bbc565b60005b83811015611c0a578181015183820152602001611bf2565b50506000910152565b60008151808452611c2b816020860160208601611bef565b601f01601f19169290920160200192915050565b602081526000610f2a6020830184611c13565b600060208284031215611c6457600080fd5b5035919050565b6001600160a01b038116811461121057600080fd5b60008060408385031215611c9357600080fd5b8235611c9e81611c6b565b946020939093013593505050565b600080600060608486031215611cc157600080fd5b8335611ccc81611c6b565b92506020840135611cdc81611c6b565b929592945050506040919091013590565b600060208284031215611cff57600080fd5b8135610f2a81611c6b565b6020808252825182820181905260009190848201906040850190845b81811015611d4257835183529284019291840191600101611d26565b50909695505050505050565b80358015158114611d5e57600080fd5b919050565b60008060408385031215611d7657600080fd5b8235611d8181611c6b565b9150611d8f60208401611d4e565b90509250929050565b634e487b7160e01b600052604160045260246000fd5b60008060008060808587031215611dc457600080fd5b8435611dcf81611c6b565b93506020850135611ddf81611c6b565b925060408501359150606085013567ffffffffffffffff80821115611e0357600080fd5b818701915087601f830112611e1757600080fd5b813581811115611e2957611e29611d98565b604051601f8201601f19908116603f01168101908382118183101715611e5157611e51611d98565b816040528281528a6020848701011115611e6a57600080fd5b82602086016020830137600060208483010152809550505050505092959194509250565b60008060008060608587031215611ea457600080fd5b843593506020850135611eb681611c6b565b9250604085013567ffffffffffffffff80821115611ed357600080fd5b818701915087601f830112611ee757600080fd5b813581811115611ef657600080fd5b886020828501011115611f0857600080fd5b95989497505060200194505050565b600080600060608486031215611f2c57600080fd5b611f3584611d4e565b9250602084013591506040840135611f4c81611c6b565b809150509250925092565b60008060408385031215611f6a57600080fd5b8235611f7581611c6b565b91506020830135611f8581611c6b565b809150509250929050565b600181811c90821680611fa457607f821691505b602082108103611fc457634e487b7160e01b600052602260045260246000fd5b50919050565b634e487b7160e01b600052603260045260246000fd5b634e487b7160e01b600052601160045260246000fd5b8181038181111561075057610750611fe0565b634e487b7160e01b600052603160045260246000fd5b60006001820161203157612031611fe0565b5060010190565b6000806000806080858703121561204e57600080fd5b843561205981611c6b565b93506020850135925060408501359150606085013561207781611c6b565b939692955090935050565b60008351612094818460208801611bef565b8351908301906120a8818360208801611bef565b01949350505050565b6001600160a01b03858116825284166020820152604081018390526080606082018190526000906120e490830184611c13565b9695505050505050565b60006020828403121561210057600080fd5b8151610f2a81611bbc565b8082018082111561075057610750611fe056fea264697066735822122055245f3b1b430a89f4fed16adfd5b2073bd1523767faca581dd6a694dd9db81964736f6c63430008190033",
    "linkReferences": {}
  },
  "methodIdentifiers": {
    "SUBSCRIPTION_PERIOD()": "4ea1dc5e",
    "approve(address,uint256)": "095ea7b3",
    "balanceOf(address)": "70a08231",
    "cancelSubscription(uint256)": "21235083",
    "createRoom(bool,uint256,address)": "cca51454",
    "getApproved(uint256)": "081812fc",
    "getRoomDetails(uint256)": "294550de",
    "getUserActiveSubscriptions(address)": "af6c0b64",
    "getUserSubscribedRooms(address)": "4e3111c9",
    "hasAccess(address,uint256)": "c6530e41",
    "isApprovedForAll(address,address)": "e985e9c5",
    "lastRoomID()": "f21aa485",
    "messenger()": "3cb747bf",
    "name()": "06fdde03",
    "owner()": "8da5cb5b",
    "ownerOf(uint256)": "6352211e",
    "paymentReceiverContract()": "3149a559",
    "receiveTeleporterMessage(bytes32,address,bytes)": "c868efaa",
    "renounceOwnership()": "715018a6",
    "roomCreationFee()": "c6dcaf6c",
    "roomExists(uint256)": "3d084a80",
    "rooms(uint256)": "1bae0ac8",
    "safeTransferFrom(address,address,uint256)": "42842e0e",
    "safeTransferFrom(address,address,uint256,bytes)": "b88d4fde",
    "setApprovalForAll(address,bool)": "a22cb465",
    "setPaymentReceiverContract(address)": "31d29727",
    "supportsInterface(bytes4)": "01ffc9a7",
    "symbol()": "95d89b41",
    "tokenURI(uint256)": "c87b56dd",
    "transferFrom(address,address,uint256)": "23b872dd",
    "transferOwnership(address)": "f2fde38b",
    "updateRoomCreationFee(uint256)": "30480537",
    "userSubscriptions(address,uint256)": "c95d6edc",
    "withdrawPEARL()": "1373b519"
  },
  "id": 20
}