{
  "abi": [
    {
      "type": "constructor",
      "inputs": [
        {
          "name": "_subscriptionToken",
          "type": "address",
          "internalType": "address"
        },
        {
          "name": "_chowliveRoomContract",
          "type": "address",
          "internalType": "address"
        },
        {
          "name": "_ccipRouter",
          "type": "address",
          "internalType": "address"
        }
      ],
      "stateMutability": "nonpayable"
    },
    {
      "type": "function",
      "name": "ccipReceive",
      "inputs": [
        {
          "name": "message",
          "type": "tuple",
          "internalType": "struct Client.Any2EVMMessage",
          "components": [
            {
              "name": "messageId",
              "type": "bytes32",
              "internalType": "bytes32"
            },
            {
              "name": "sourceChainSelector",
              "type": "uint64",
              "internalType": "uint64"
            },
            {
              "name": "sender",
              "type": "bytes",
              "internalType": "bytes"
            },
            {
              "name": "data",
              "type": "bytes",
              "internalType": "bytes"
            },
            {
              "name": "destTokenAmounts",
              "type": "tuple[]",
              "internalType": "struct Client.EVMTokenAmount[]",
              "components": [
                {
                  "name": "token",
                  "type": "address",
                  "internalType": "address"
                },
                {
                  "name": "amount",
                  "type": "uint256",
                  "internalType": "uint256"
                }
              ]
            }
          ]
        }
      ],
      "outputs": [],
      "stateMutability": "nonpayable"
    },
    {
      "type": "function",
      "name": "chowliveRoomContract",
      "inputs": [],
      "outputs": [
        {
          "name": "",
          "type": "address",
          "internalType": "address"
        }
      ],
      "stateMutability": "view"
    },
    {
      "type": "function",
      "name": "getRouter",
      "inputs": [],
      "outputs": [
        {
          "name": "",
          "type": "address",
          "internalType": "address"
        }
      ],
      "stateMutability": "view"
    },
    {
      "type": "function",
      "name": "owner",
      "inputs": [],
      "outputs": [
        {
          "name": "",
          "type": "address",
          "internalType": "address"
        }
      ],
      "stateMutability": "view"
    },
    {
      "type": "function",
      "name": "receivePayment",
      "inputs": [
        {
          "name": "user",
          "type": "address",
          "internalType": "address"
        },
        {
          "name": "roomId",
          "type": "uint256",
          "internalType": "uint256"
        },
        {
          "name": "amount",
          "type": "uint256",
          "internalType": "uint256"
        }
      ],
      "outputs": [],
      "stateMutability": "nonpayable"
    },
    {
      "type": "function",
      "name": "renounceOwnership",
      "inputs": [],
      "outputs": [],
      "stateMutability": "nonpayable"
    },
    {
      "type": "function",
      "name": "subscriptionToken",
      "inputs": [],
      "outputs": [
        {
          "name": "",
          "type": "address",
          "internalType": "contract IERC20"
        }
      ],
      "stateMutability": "view"
    },
    {
      "type": "function",
      "name": "supportsInterface",
      "inputs": [
        {
          "name": "interfaceId",
          "type": "bytes4",
          "internalType": "bytes4"
        }
      ],
      "outputs": [
        {
          "name": "",
          "type": "bool",
          "internalType": "bool"
        }
      ],
      "stateMutability": "pure"
    },
    {
      "type": "function",
      "name": "teleporter",
      "inputs": [],
      "outputs": [
        {
          "name": "",
          "type": "address",
          "internalType": "contract ITeleporterMessenger"
        }
      ],
      "stateMutability": "view"
    },
    {
      "type": "function",
      "name": "transferOwnership",
      "inputs": [
        {
          "name": "newOwner",
          "type": "address",
          "internalType": "address"
        }
      ],
      "outputs": [],
      "stateMutability": "nonpayable"
    },
    {
      "type": "function",
      "name": "updateAddresses",
      "inputs": [
        {
          "name": "_chowliveRoomContract",
          "type": "address",
          "internalType": "address"
        }
      ],
      "outputs": [],
      "stateMutability": "nonpayable"
    },
    {
      "type": "function",
      "name": "withdrawTokens",
      "inputs": [],
      "outputs": [],
      "stateMutability": "nonpayable"
    },
    {
      "type": "event",
      "name": "CrossChainPaymentReceived",
      "inputs": [
        {
          "name": "sourceChainSelector",
          "type": "uint64",
          "indexed": false,
          "internalType": "uint64"
        },
        {
          "name": "user",
          "type": "address",
          "indexed": false,
          "internalType": "address"
        },
        {
          "name": "roomId",
          "type": "uint256",
          "indexed": false,
          "internalType": "uint256"
        },
        {
          "name": "amount",
          "type": "uint256",
          "indexed": false,
          "internalType": "uint256"
        }
      ],
      "anonymous": false
    },
    {
      "type": "event",
      "name": "OwnershipTransferred",
      "inputs": [
        {
          "name": "previousOwner",
          "type": "address",
          "indexed": true,
          "internalType": "address"
        },
        {
          "name": "newOwner",
          "type": "address",
          "indexed": true,
          "internalType": "address"
        }
      ],
      "anonymous": false
    },
    {
      "type": "event",
      "name": "PaymentReceived",
      "inputs": [
        {
          "name": "user",
          "type": "address",
          "indexed": false,
          "internalType": "address"
        },
        {
          "name": "roomId",
          "type": "uint256",
          "indexed": false,
          "internalType": "uint256"
        },
        {
          "name": "amount",
          "type": "uint256",
          "indexed": false,
          "internalType": "uint256"
        }
      ],
      "anonymous": false
    },
    {
      "type": "error",
      "name": "InvalidRouter",
      "inputs": [
        {
          "name": "router",
          "type": "address",
          "internalType": "address"
        }
      ]
    },
    {
      "type": "error",
      "name": "OwnableInvalidOwner",
      "inputs": [
        {
          "name": "owner",
          "type": "address",
          "internalType": "address"
        }
      ]
    },
    {
      "type": "error",
      "name": "OwnableUnauthorizedAccount",
      "inputs": [
        {
          "name": "account",
          "type": "address",
          "internalType": "address"
        }
      ]
    }
  ],
  "bytecode": {
    "object": "0x60a0604052600380546001600160a01b03191673253b2784c75e510dd0ff1da844684a1ac0aa5fcf17905534801561003657600080fd5b50604051610feb380380610feb8339810160408190526100559161015e565b33816001600160a01b038116610086576040516335fdcccd60e21b8152600060048201526024015b60405180910390fd5b6001600160a01b0390811660805281166100b657604051631e4fbdf760e01b81526000600482015260240161007d565b6100bf816100f2565b5050600180546001600160a01b039384166001600160a01b031991821617909155600280549290931691161790556101a1565b600080546001600160a01b038381166001600160a01b0319831681178455604051919092169283917f8be0079c531659141344cd1fd0a4f28419497f9722a3daafe3b4186f6b6457e09190a35050565b80516001600160a01b038116811461015957600080fd5b919050565b60008060006060848603121561017357600080fd5b61017c84610142565b925061018a60208501610142565b915061019860408501610142565b90509250925092565b608051610e286101c360003960008181610153015261033f0152610e286000f3fe608060405234801561001057600080fd5b50600436106100b45760003560e01c8063a643c1a011610071578063a643c1a01461013e578063b0f479a114610151578063b3ff9f4914610177578063ba755e9a1461018a578063d6672e1c1461019d578063f2fde38b146101b057600080fd5b806301ffc9a7146100b95780630642aa6e146100e1578063715018a6146100f657806385572ffb146100fe5780638d8f2adb146101115780638da5cb5b14610119575b600080fd5b6100cc6100c7366004610914565b6101c3565b60405190151581526020015b60405180910390f35b6100f46100ef36600461095a565b6101fa565b005b6100f4610320565b6100f461010c36600461098f565b610334565b6100f4610393565b6000546001600160a01b03165b6040516001600160a01b0390911681526020016100d8565b6100f461014c3660046109ca565b610522565b7f0000000000000000000000000000000000000000000000000000000000000000610126565b600354610126906001600160a01b031681565b600254610126906001600160a01b031681565b600154610126906001600160a01b031681565b6100f46101be3660046109ca565b61054c565b60006001600160e01b031982166385572ffb60e01b14806101f457506001600160e01b031982166301ffc9a760e01b145b92915050565b6001546040516323b872dd60e01b8152336004820152306024820152604481018390526001600160a01b03909116906323b872dd906064016020604051808303816000875af1158015610251573d6000803e3d6000fd5b505050506040513d601f19601f8201168201806040525081019061027591906109e7565b6102c65760405162461bcd60e51b815260206004820152601760248201527f5061796d656e74207472616e73666572206661696c656400000000000000000060448201526064015b60405180910390fd5b604080516001600160a01b0385168152602081018490529081018290527f5677b5d4cf976ac32defbd95a6a5aaf0d1fee450a11fc26f3c11aae6e6c33d069060600160405180910390a161031b838383610587565b505050565b6103286106ff565b610332600061072c565b565b336001600160a01b037f0000000000000000000000000000000000000000000000000000000000000000161461037f576040516335fdcccd60e21b81523360048201526024016102bd565b61039061038b82610bd6565b61077c565b50565b6001546040516370a0823160e01b81523060048201526000916001600160a01b0316906370a0823190602401602060405180830381865afa1580156103dc573d6000803e3d6000fd5b505050506040513d601f19601f820116820180604052508101906104009190610c83565b90506000811161044a5760405162461bcd60e51b81526020600482015260156024820152744e6f20746f6b656e7320746f20776974686472617760581b60448201526064016102bd565b6001546001600160a01b031663a9059cbb61046d6000546001600160a01b031690565b6040516001600160e01b031960e084901b1681526001600160a01b039091166004820152602481018490526044016020604051808303816000875af11580156104ba573d6000803e3d6000fd5b505050506040513d601f19601f820116820180604052508101906104de91906109e7565b6103905760405162461bcd60e51b8152602060048201526015602482015274151bdad95b881d1c985b9cd9995c8819985a5b1959605a1b60448201526064016102bd565b61052a6106ff565b600280546001600160a01b0319166001600160a01b0392909216919091179055565b6105546106ff565b6001600160a01b03811661057e57604051631e4fbdf760e01b8152600060048201526024016102bd565b6103908161072c565b600154604080516001600160a01b038087166020830152918101859052606081018490529116608082015260009060a00160408051808303601f19018152600180845283830190925292506000919081602001602082028036833701905050905073436f6b9ced56c59759de0b599e2e057cc65ee24d8160008151811061061057610610610c9c565b6001600160a01b039283166020918202929092018101919091526003546040805160c0810182527f1a5e1cba4b3ebcfc4b668d2642d152adcd4bb49aa556765720ca737f09468e6e81526002548516818501528151808301835260008082529481019490945280820193909352620186a060608401526080830185905260a0830186905251630624488560e41b81529216916362448850916106b491600401610d3d565b6020604051808303816000875af11580156106d3573d6000803e3d6000fd5b505050506040513d601f19601f820116820180604052508101906106f79190610c83565b505050505050565b6000546001600160a01b031633146103325760405163118cdaa760e01b81523360048201526024016102bd565b600080546001600160a01b038381166001600160a01b0319831681178455604051919092169283917f8be0079c531659141344cd1fd0a4f28419497f9722a3daafe3b4186f6b6457e09190a35050565b8060800151516001146107d15760405162461bcd60e51b815260206004820152601960248201527f4578706563746564203120746f6b656e207472616e736665720000000000000060448201526064016102bd565b600081608001516000815181106107ea576107ea610c9c565b60200260200101516000015190506000826080015160008151811061081157610811610c9c565b60209081029190910181015101516001549091506001600160a01b0383811691161461087f5760405162461bcd60e51b815260206004820152601860248201527f496e636f727265637420746f6b656e207265636569766564000000000000000060448201526064016102bd565b600080846060015180602001905181019061089a9190610dc4565b6020808801516040805167ffffffffffffffff90921682526001600160a01b038516928201929092529081018290526060810186905291935091507f97114c508b4468f306d887371a63cebdeb18756d2205777eba7f0633635ecaaa9060800160405180910390a161090d828285610587565b5050505050565b60006020828403121561092657600080fd5b81356001600160e01b03198116811461093e57600080fd5b9392505050565b6001600160a01b038116811461039057600080fd5b60008060006060848603121561096f57600080fd5b833561097a81610945565b95602085013595506040909401359392505050565b6000602082840312156109a157600080fd5b813567ffffffffffffffff8111156109b857600080fd5b820160a0818503121561093e57600080fd5b6000602082840312156109dc57600080fd5b813561093e81610945565b6000602082840312156109f957600080fd5b8151801515811461093e57600080fd5b634e487b7160e01b600052604160045260246000fd5b6040805190810167ffffffffffffffff81118282101715610a4257610a42610a09565b60405290565b60405160a0810167ffffffffffffffff81118282101715610a4257610a42610a09565b604051601f8201601f1916810167ffffffffffffffff81118282101715610a9457610a94610a09565b604052919050565b803567ffffffffffffffff81168114610ab457600080fd5b919050565b600082601f830112610aca57600080fd5b813567ffffffffffffffff811115610ae457610ae4610a09565b610af7601f8201601f1916602001610a6b565b818152846020838601011115610b0c57600080fd5b816020850160208301376000918101602001919091529392505050565b600082601f830112610b3a57600080fd5b8135602067ffffffffffffffff821115610b5657610b56610a09565b610b64818360051b01610a6b565b82815260069290921b84018101918181019086841115610b8357600080fd5b8286015b84811015610bcb5760408189031215610ba05760008081fd5b610ba8610a1f565b8135610bb381610945565b81528185013585820152835291830191604001610b87565b509695505050505050565b600060a08236031215610be857600080fd5b610bf0610a48565b82358152610c0060208401610a9c565b6020820152604083013567ffffffffffffffff80821115610c2057600080fd5b610c2c36838701610ab9565b60408401526060850135915080821115610c4557600080fd5b610c5136838701610ab9565b60608401526080850135915080821115610c6a57600080fd5b50610c7736828601610b29565b60808301525092915050565b600060208284031215610c9557600080fd5b5051919050565b634e487b7160e01b600052603260045260246000fd5b60008151808452602080850194506020840160005b83811015610cec5781516001600160a01b031687529582019590820190600101610cc7565b509495945050505050565b6000815180845260005b81811015610d1d57602081850181015186830182015201610d01565b506000602082860101526020601f19601f83011685010191505092915050565b60208152815160208201526000602083015160018060a01b03808216604085015260408501519150808251166060850152506020810151608084015250606083015160a0830152608083015160e060c0840152610d9e610100840182610cb2565b905060a0840151601f198483030160e0850152610dbb8282610cf7565b95945050505050565b60008060408385031215610dd757600080fd5b8251610de281610945565b602093909301519294929350505056fea2646970667358221220fca6a5c93f6a78bb9d3898a38ee968f6a40f6bf71cd43122ab8934547e45247a64736f6c63430008190033",
    "linkReferences": {}
  },
  "methodIdentifiers": {
    "ccipReceive((bytes32,uint64,bytes,bytes,(address,uint256)[]))": "85572ffb",
    "chowliveRoomContract()": "ba755e9a",
    "getRouter()": "b0f479a1",
    "owner()": "8da5cb5b",
    "receivePayment(address,uint256,uint256)": "0642aa6e",
    "renounceOwnership()": "715018a6",
    "subscriptionToken()": "d6672e1c",
    "supportsInterface(bytes4)": "01ffc9a7",
    "teleporter()": "b3ff9f49",
    "transferOwnership(address)": "f2fde38b",
    "updateAddresses(address)": "a643c1a0",
    "withdrawTokens()": "8d8f2adb"
  },
  "id": 8
}