{"abi":[{"type":"constructor","inputs":[{"name":"_router","type":"address","internalType":"address"},{"name":"_linkToken","type":"address","internalType":"address"},{"name":"_paymentReceiverContract","type":"address","internalType":"address"},{"name":"_subscriptionToken","type":"address","internalType":"address"},{"name":"_destinationChainSelector","type":"uint64","internalType":"uint64"}],"stateMutability":"nonpayable"},{"type":"receive","stateMutability":"payable"},{"type":"function","name":"destinationChainSelector","inputs":[],"outputs":[{"name":"","type":"uint64","internalType":"uint64"}],"stateMutability":"view"},{"type":"function","name":"linkToken","inputs":[],"outputs":[{"name":"","type":"address","internalType":"contract LinkTokenInterface"}],"stateMutability":"view"},{"type":"function","name":"paymentReceiverContract","inputs":[],"outputs":[{"name":"","type":"address","internalType":"address"}],"stateMutability":"view"},{"type":"function","name":"quoteCrossChainMessage","inputs":[{"name":"targetChain","type":"uint64","internalType":"uint64"},{"name":"payFeesIn","type":"uint8","internalType":"enum ChowlivePaymentRouter.PayFeesIn"},{"name":"tokenAmount","type":"uint256","internalType":"uint256"}],"outputs":[{"name":"cost","type":"uint256","internalType":"uint256"}],"stateMutability":"view"},{"type":"function","name":"router","inputs":[],"outputs":[{"name":"","type":"address","internalType":"contract IRouterClient"}],"stateMutability":"view"},{"type":"function","name":"subscribeToCrossChainRoom","inputs":[{"name":"user","type":"address","internalType":"address"},{"name":"roomId","type":"uint256","internalType":"uint256"},{"name":"amount","type":"uint256","internalType":"uint256"},{"name":"payFeesIn","type":"uint8","internalType":"enum ChowlivePaymentRouter.PayFeesIn"}],"outputs":[{"name":"messageId","type":"bytes32","internalType":"bytes32"}],"stateMutability":"payable"},{"type":"function","name":"subscriptionToken","inputs":[],"outputs":[{"name":"","type":"address","internalType":"contract IERC20"}],"stateMutability":"view"},{"type":"function","name":"updateAddresses","inputs":[{"name":"_paymentReceiverContract","type":"address","internalType":"address"},{"name":"_subscriptionToken","type":"address","internalType":"address"},{"name":"_destinationChainSelector","type":"uint64","internalType":"uint64"}],"outputs":[],"stateMutability":"nonpayable"},{"type":"function","name":"withdrawTokens","inputs":[{"name":"token","type":"address","internalType":"address"},{"name":"to","type":"address","internalType":"address"}],"outputs":[],"stateMutability":"nonpayable"},{"type":"event","name":"PaymentSent","inputs":[{"name":"sender","type":"address","indexed":true,"internalType":"address"},{"name":"roomId","type":"uint256","indexed":false,"internalType":"uint256"},{"name":"amount","type":"uint256","indexed":false,"internalType":"uint256"},{"name":"messageId","type":"bytes32","indexed":false,"internalType":"bytes32"}],"anonymous":false}],"bytecode":{"object":"0x60c06040523480156200001157600080fd5b50604051620014ab380380620014ab8339810160408190526200003491620000ae565b6001600160a01b0394851660805292841660a052600080549285166001600160a01b031990931692909217909155600180546001600160401b03909316600160a01b026001600160e01b031990931691909316171790556200012e565b80516001600160a01b0381168114620000a957600080fd5b919050565b600080600080600060a08688031215620000c757600080fd5b620000d28662000091565b9450620000e26020870162000091565b9350620000f26040870162000091565b9250620001026060870162000091565b60808701519092506001600160401b03811681146200012057600080fd5b809150509295509295909350565b60805160a0516113116200019a6000396000818161019001528181610446015281816105ad015281816106ab0152610a54015260008181610245015281816104a80152818161054d0152818161067c0152818161072b015281816108310152610ab801526113116000f3fe60806040526004361061008a5760003560e01c8063585e826511610059578063585e8265146101b25780638643d906146101d3578063a522ad25146101f3578063d6672e1c14610213578063f887ea401461023357600080fd5b80630ffdf3ea146100965780633149a5591461010057806331db1ffc1461013d57806357970e931461017e57600080fd5b3661009157005b600080fd5b3480156100a257600080fd5b506100fe6100b1366004610fe6565b600080546001600160a01b039485166001600160a01b03199091161790556001805467ffffffffffffffff909216600160a01b026001600160e01b03199092169290931691909117179055565b005b34801561010c57600080fd5b50600054610120906001600160a01b031681565b6040516001600160a01b0390911681526020015b60405180910390f35b34801561014957600080fd5b5060015461016590600160a01b900467ffffffffffffffff1681565b60405167ffffffffffffffff9091168152602001610134565b34801561018a57600080fd5b506101207f000000000000000000000000000000000000000000000000000000000000000081565b6101c56101c0366004611038565b610267565b604051908152602001610134565b3480156101df57600080fd5b506101c56101ee36600461107e565b610961565b3480156101ff57600080fd5b506100fe61020e3660046110ba565b610b3a565b34801561021f57600080fd5b50600154610120906001600160a01b031681565b34801561023f57600080fd5b506101207f000000000000000000000000000000000000000000000000000000000000000081565b6001546040516323b872dd60e01b8152336004820152306024820152604481018490526000916001600160a01b0316906323b872dd906064016020604051808303816000875af11580156102bf573d6000803e3d6000fd5b505050506040513d601f19601f820116820180604052508101906102e391906110ed565b61032c5760405162461bcd60e51b8152602060048201526015602482015274151bdad95b881d1c985b9cd9995c8819985a5b1959605a1b60448201526064015b60405180910390fd5b604080516001808252818301909252600091816020015b6040805180820190915260008082526020820152815260200190600190039081610343575050604080518082019091526001546001600160a01b0316815260208101869052815191925090829060009061039f5761039f611116565b6020026020010181905250600086866040516020016103d39291906001600160a01b03929092168252602082015260400190565b60408051808303601f1901815260a08301909152600080546001600160a01b031660c0840152909250908060e0810160408051601f1981840301815291815290825260208201859052810185905260600160018760018111156104385761043861112c565b14610444576000610466565b7f00000000000000000000000000000000000000000000000000000000000000005b6001600160a01b0316815260200161048e60405180602001604052806203d090815250610c08565b90526001546040516320487ded60e01b81529192506000917f00000000000000000000000000000000000000000000000000000000000000006001600160a01b0316916320487ded916104f791600160a01b900467ffffffffffffffff16908690600401611192565b602060405180830381865afa158015610514573d6000803e3d6000fd5b505050506040513d601f19601f82011682018060405250810190610538919061126c565b600154909150610572906001600160a01b03167f000000000000000000000000000000000000000000000000000000000000000089610c45565b60018660018111156105865761058661112c565b036107c4576040516323b872dd60e01b8152336004820152306024820152604481018290527f00000000000000000000000000000000000000000000000000000000000000006001600160a01b0316906323b872dd906064016020604051808303816000875af11580156105fe573d6000803e3d6000fd5b505050506040513d601f19601f8201168201806040525081019061062291906110ed565b6106655760405162461bcd60e51b815260206004820152601460248201527313125392c81d1c985b9cd9995c8819985a5b195960621b6044820152606401610323565b60405163095ea7b360e01b81526001600160a01b037f000000000000000000000000000000000000000000000000000000000000000081166004830152602482018390527f0000000000000000000000000000000000000000000000000000000000000000169063095ea7b3906044016020604051808303816000875af11580156106f4573d6000803e3d6000fd5b505050506040513d601f19601f8201168201806040525081019061071891906110ed565b506001546040516396f4e9f960e01b81527f00000000000000000000000000000000000000000000000000000000000000006001600160a01b0316916396f4e9f99161077a91600160a01b900467ffffffffffffffff16908690600401611192565b6020604051808303816000875af1158015610799573d6000803e3d6000fd5b505050506040513d601f19601f820116820180604052508101906107bd919061126c565b9450610908565b8034101561081f5760405162461bcd60e51b815260206004820152602260248201527f496e73756666696369656e74206e617469766520746f6b656e20666f72206665604482015261657360f01b6064820152608401610323565b6001546040516396f4e9f960e01b81527f00000000000000000000000000000000000000000000000000000000000000006001600160a01b0316916396f4e9f991849161088391600160a01b90910467ffffffffffffffff16908790600401611192565b60206040518083038185885af11580156108a1573d6000803e3d6000fd5b50505050506040513d601f19601f820116820180604052508101906108c6919061126c565b94508034111561090857336108fc6108de8334611285565b6040518115909202916000818181858888f19350505050158015610906573d6000803e3d6000fd5b505b60408051898152602081018990529081018690526001600160a01b038a16907f5e23a33e526a9f3842e954fa0511bb568d646014c6c1cc2c63f95acec4e555709060600160405180910390a2505050505b949350505050565b604080516001808252818301909252600091829190816020015b604080518082019091526000808252602082015281526020019060019003908161097b575050604080518082019091526001546001600160a01b031681526020810185905281519192509082906000906109d7576109d7611116565b6020908102919091018101919091526040805160a081018252600080546001600160a01b031660c0808401919091528351808403909101815260e083018452825282518181528085018452938201939093529081018390526060810160018781811115610a4657610a4661112c565b14610a52576000610a74565b7f00000000000000000000000000000000000000000000000000000000000000005b6001600160a01b03168152602001610a9c60405180602001604052806203d090815250610c08565b90526040516320487ded60e01b81529091506001600160a01b037f000000000000000000000000000000000000000000000000000000000000000016906320487ded90610aef9089908590600401611192565b602060405180830381865afa158015610b0c573d6000803e3d6000fd5b505050506040513d601f19601f82011682018060405250810190610b30919061126c565b9695505050505050565b6040516370a0823160e01b81523060048201526000906001600160a01b038416906370a0823190602401602060405180830381865afa158015610b81573d6000803e3d6000fd5b505050506040513d601f19601f82011682018060405250810190610ba5919061126c565b905060008111610bef5760405162461bcd60e51b81526020600482015260156024820152744e6f20746f6b656e7320746f20776974686472617760581b6044820152606401610323565b610c036001600160a01b0384168383610d8d565b505050565b60408051915160248084019190915281518084039091018152604490920190526020810180516001600160e01b03166397a657c960e01b17905290565b801580610cbf5750604051636eb1769f60e11b81523060048201526001600160a01b03838116602483015284169063dd62ed3e90604401602060405180830381865afa158015610c99573d6000803e3d6000fd5b505050506040513d601f19601f82011682018060405250810190610cbd919061126c565b155b610d2a5760405162461bcd60e51b815260206004820152603660248201527f5361666545524332303a20617070726f76652066726f6d206e6f6e2d7a65726f60448201527520746f206e6f6e2d7a65726f20616c6c6f77616e636560501b6064820152608401610323565b6040516001600160a01b038316602482015260448101829052610c0390849063095ea7b360e01b906064015b60408051601f198184030181529190526020810180516001600160e01b03166001600160e01b031990931692909217909152610dbd565b6040516001600160a01b038316602482015260448101829052610c0390849063a9059cbb60e01b90606401610d56565b6000610e12826040518060400160405280602081526020017f5361666545524332303a206c6f772d6c6576656c2063616c6c206661696c6564815250856001600160a01b0316610e8f9092919063ffffffff16565b805190915015610c035780806020019051810190610e3091906110ed565b610c035760405162461bcd60e51b815260206004820152602a60248201527f5361666545524332303a204552433230206f7065726174696f6e20646964206e6044820152691bdd081cdd58d8d9595960b21b6064820152608401610323565b6060610959848460008585600080866001600160a01b03168587604051610eb691906112ac565b60006040518083038185875af1925050503d8060008114610ef3576040519150601f19603f3d011682016040523d82523d6000602084013e610ef8565b606091505b5091509150610f0987838387610f14565b979650505050505050565b60608315610f83578251600003610f7c576001600160a01b0385163b610f7c5760405162461bcd60e51b815260206004820152601d60248201527f416464726573733a2063616c6c20746f206e6f6e2d636f6e74726163740000006044820152606401610323565b5081610959565b6109598383815115610f985781518083602001fd5b8060405162461bcd60e51b815260040161032391906112c8565b80356001600160a01b0381168114610fc957600080fd5b919050565b803567ffffffffffffffff81168114610fc957600080fd5b600080600060608486031215610ffb57600080fd5b61100484610fb2565b925061101260208501610fb2565b915061102060408501610fce565b90509250925092565b803560028110610fc957600080fd5b6000806000806080858703121561104e57600080fd5b61105785610fb2565b9350602085013592506040850135915061107360608601611029565b905092959194509250565b60008060006060848603121561109357600080fd5b61109c84610fce565b92506110aa60208501611029565b9150604084013590509250925092565b600080604083850312156110cd57600080fd5b6110d683610fb2565b91506110e460208401610fb2565b90509250929050565b6000602082840312156110ff57600080fd5b8151801515811461110f57600080fd5b9392505050565b634e487b7160e01b600052603260045260246000fd5b634e487b7160e01b600052602160045260246000fd5b60005b8381101561115d578181015183820152602001611145565b50506000910152565b6000815180845261117e816020860160208601611142565b601f01601f19169290920160200192915050565b6000604067ffffffffffffffff8516835260208181850152845160a0838601526111bf60e0860182611166565b905081860151603f19808784030160608801526111dc8383611166565b88860151888203830160808a01528051808352908601945060009350908501905b8084101561122f57845180516001600160a01b03168352860151868301529385019360019390930192908601906111fd565b5060608901516001600160a01b031660a08901526080890151888203830160c08a0152955061125e8187611166565b9a9950505050505050505050565b60006020828403121561127e57600080fd5b5051919050565b818103818111156112a657634e487b7160e01b600052601160045260246000fd5b92915050565b600082516112be818460208701611142565b9190910192915050565b60208152600061110f602083018461116656fea2646970667358221220cf3361a2132a51059812043bbe13519ee28c8cc53f9a68732c5d87307d86fe5464736f6c63430008140033","linkReferences":{}},"methodIdentifiers":{"destinationChainSelector()":"31db1ffc","linkToken()":"57970e93","paymentReceiverContract()":"3149a559","quoteCrossChainMessage(uint64,uint8,uint256)":"8643d906","router()":"f887ea40","subscribeToCrossChainRoom(address,uint256,uint256,uint8)":"585e8265","subscriptionToken()":"d6672e1c","updateAddresses(address,address,uint64)":"0ffdf3ea","withdrawTokens(address,address)":"a522ad25"},"id":38}