{"abi":[{"type":"constructor","inputs":[{"name":"_roomCreationFee","type":"uint256","internalType":"uint256"},{"name":"_ccipRouter","type":"address","internalType":"address"}],"stateMutability":"nonpayable"},{"type":"function","name":"DEFAULT_ADMIN_ROLE","inputs":[],"outputs":[{"name":"","type":"bytes32","internalType":"bytes32"}],"stateMutability":"view"},{"type":"function","name":"MANAGER_ROLE","inputs":[],"outputs":[{"name":"","type":"bytes32","internalType":"bytes32"}],"stateMutability":"view"},{"type":"function","name":"approve","inputs":[{"name":"to","type":"address","internalType":"address"},{"name":"tokenId","type":"uint256","internalType":"uint256"}],"outputs":[],"stateMutability":"nonpayable"},{"type":"function","name":"balanceOf","inputs":[{"name":"owner","type":"address","internalType":"address"}],"outputs":[{"name":"","type":"uint256","internalType":"uint256"}],"stateMutability":"view"},{"type":"function","name":"cancelSubscription","inputs":[{"name":"roomId","type":"uint256","internalType":"uint256"}],"outputs":[],"stateMutability":"nonpayable"},{"type":"function","name":"ccipReceive","inputs":[{"name":"message","type":"tuple","internalType":"struct Client.Any2EVMMessage","components":[{"name":"messageId","type":"bytes32","internalType":"bytes32"},{"name":"sourceChainSelector","type":"uint64","internalType":"uint64"},{"name":"sender","type":"bytes","internalType":"bytes"},{"name":"data","type":"bytes","internalType":"bytes"},{"name":"destTokenAmounts","type":"tuple[]","internalType":"struct Client.EVMTokenAmount[]","components":[{"name":"token","type":"address","internalType":"address"},{"name":"amount","type":"uint256","internalType":"uint256"}]}]}],"outputs":[],"stateMutability":"nonpayable"},{"type":"function","name":"createRoom","inputs":[{"name":"isPublic","type":"bool","internalType":"bool"},{"name":"subscriptionFee","type":"uint256","internalType":"uint256"},{"name":"subscriptionToken","type":"address","internalType":"address"}],"outputs":[{"name":"","type":"uint256","internalType":"uint256"}],"stateMutability":"payable"},{"type":"function","name":"getApproved","inputs":[{"name":"tokenId","type":"uint256","internalType":"uint256"}],"outputs":[{"name":"","type":"address","internalType":"address"}],"stateMutability":"view"},{"type":"function","name":"getRoleAdmin","inputs":[{"name":"role","type":"bytes32","internalType":"bytes32"}],"outputs":[{"name":"","type":"bytes32","internalType":"bytes32"}],"stateMutability":"view"},{"type":"function","name":"getRoomAdminRole","inputs":[{"name":"roomId","type":"uint256","internalType":"uint256"}],"outputs":[{"name":"","type":"bytes32","internalType":"bytes32"}],"stateMutability":"pure"},{"type":"function","name":"getRoomDetails","inputs":[{"name":"roomId","type":"uint256","internalType":"uint256"}],"outputs":[{"name":"","type":"tuple","internalType":"struct IChowliveRoom.Room","components":[{"name":"id","type":"uint256","internalType":"uint256"},{"name":"subscriptionFee","type":"uint256","internalType":"uint256"},{"name":"subscriptionToken","type":"address","internalType":"address"},{"name":"isPublic","type":"bool","internalType":"bool"},{"name":"tokenBalance","type":"uint256","internalType":"uint256"},{"name":"subscriberCount","type":"uint256","internalType":"uint256"}]}],"stateMutability":"view"},{"type":"function","name":"getRouter","inputs":[],"outputs":[{"name":"","type":"address","internalType":"address"}],"stateMutability":"view"},{"type":"function","name":"getSubscriberCount","inputs":[{"name":"roomId","type":"uint256","internalType":"uint256"}],"outputs":[{"name":"","type":"uint256","internalType":"uint256"}],"stateMutability":"view"},{"type":"function","name":"getUserActiveSubscriptions","inputs":[{"name":"user","type":"address","internalType":"address"}],"outputs":[{"name":"","type":"uint256[]","internalType":"uint256[]"}],"stateMutability":"view"},{"type":"function","name":"getUserSubscribedRooms","inputs":[{"name":"user","type":"address","internalType":"address"}],"outputs":[{"name":"","type":"uint256[]","internalType":"uint256[]"}],"stateMutability":"view"},{"type":"function","name":"grantRole","inputs":[{"name":"role","type":"bytes32","internalType":"bytes32"},{"name":"account","type":"address","internalType":"address"}],"outputs":[],"stateMutability":"nonpayable"},{"type":"function","name":"hasAccess","inputs":[{"name":"user","type":"address","internalType":"address"},{"name":"roomId","type":"uint256","internalType":"uint256"}],"outputs":[{"name":"","type":"bool","internalType":"bool"}],"stateMutability":"view"},{"type":"function","name":"hasRole","inputs":[{"name":"role","type":"bytes32","internalType":"bytes32"},{"name":"account","type":"address","internalType":"address"}],"outputs":[{"name":"","type":"bool","internalType":"bool"}],"stateMutability":"view"},{"type":"function","name":"isApprovedForAll","inputs":[{"name":"owner","type":"address","internalType":"address"},{"name":"operator","type":"address","internalType":"address"}],"outputs":[{"name":"","type":"bool","internalType":"bool"}],"stateMutability":"view"},{"type":"function","name":"lastRoomID","inputs":[],"outputs":[{"name":"","type":"uint256","internalType":"uint256"}],"stateMutability":"view"},{"type":"function","name":"name","inputs":[],"outputs":[{"name":"","type":"string","internalType":"string"}],"stateMutability":"view"},{"type":"function","name":"ownerOf","inputs":[{"name":"tokenId","type":"uint256","internalType":"uint256"}],"outputs":[{"name":"","type":"address","internalType":"address"}],"stateMutability":"view"},{"type":"function","name":"renounceRole","inputs":[{"name":"role","type":"bytes32","internalType":"bytes32"},{"name":"callerConfirmation","type":"address","internalType":"address"}],"outputs":[],"stateMutability":"nonpayable"},{"type":"function","name":"revokeRole","inputs":[{"name":"role","type":"bytes32","internalType":"bytes32"},{"name":"account","type":"address","internalType":"address"}],"outputs":[],"stateMutability":"nonpayable"},{"type":"function","name":"roomCreationFee","inputs":[],"outputs":[{"name":"","type":"uint256","internalType":"uint256"}],"stateMutability":"view"},{"type":"function","name":"roomExists","inputs":[{"name":"roomId","type":"uint256","internalType":"uint256"}],"outputs":[{"name":"","type":"bool","internalType":"bool"}],"stateMutability":"view"},{"type":"function","name":"rooms","inputs":[{"name":"","type":"uint256","internalType":"uint256"}],"outputs":[{"name":"id","type":"uint256","internalType":"uint256"},{"name":"subscriptionFee","type":"uint256","internalType":"uint256"},{"name":"subscriptionToken","type":"address","internalType":"address"},{"name":"isPublic","type":"bool","internalType":"bool"},{"name":"tokenBalance","type":"uint256","internalType":"uint256"},{"name":"subscriberCount","type":"uint256","internalType":"uint256"}],"stateMutability":"view"},{"type":"function","name":"safeTransferFrom","inputs":[{"name":"from","type":"address","internalType":"address"},{"name":"to","type":"address","internalType":"address"},{"name":"tokenId","type":"uint256","internalType":"uint256"}],"outputs":[],"stateMutability":"nonpayable"},{"type":"function","name":"safeTransferFrom","inputs":[{"name":"from","type":"address","internalType":"address"},{"name":"to","type":"address","internalType":"address"},{"name":"tokenId","type":"uint256","internalType":"uint256"},{"name":"data","type":"bytes","internalType":"bytes"}],"outputs":[],"stateMutability":"nonpayable"},{"type":"function","name":"setApprovalForAll","inputs":[{"name":"operator","type":"address","internalType":"address"},{"name":"approved","type":"bool","internalType":"bool"}],"outputs":[],"stateMutability":"nonpayable"},{"type":"function","name":"subscribeToRoom","inputs":[{"name":"user","type":"address","internalType":"address"},{"name":"roomId","type":"uint256","internalType":"uint256"}],"outputs":[],"stateMutability":"nonpayable"},{"type":"function","name":"supportsInterface","inputs":[{"name":"interfaceId","type":"bytes4","internalType":"bytes4"}],"outputs":[{"name":"","type":"bool","internalType":"bool"}],"stateMutability":"pure"},{"type":"function","name":"symbol","inputs":[],"outputs":[{"name":"","type":"string","internalType":"string"}],"stateMutability":"view"},{"type":"function","name":"tokenURI","inputs":[{"name":"tokenId","type":"uint256","internalType":"uint256"}],"outputs":[{"name":"","type":"string","internalType":"string"}],"stateMutability":"view"},{"type":"function","name":"transferFrom","inputs":[{"name":"from","type":"address","internalType":"address"},{"name":"to","type":"address","internalType":"address"},{"name":"tokenId","type":"uint256","internalType":"uint256"}],"outputs":[],"stateMutability":"nonpayable"},{"type":"function","name":"updateRoomCreationFee","inputs":[{"name":"newFee","type":"uint256","internalType":"uint256"}],"outputs":[],"stateMutability":"nonpayable"},{"type":"function","name":"userSubscriptions","inputs":[{"name":"","type":"address","internalType":"address"},{"name":"","type":"uint256","internalType":"uint256"}],"outputs":[{"name":"","type":"uint256","internalType":"uint256"}],"stateMutability":"view"},{"type":"function","name":"withdrawETH","inputs":[],"outputs":[],"stateMutability":"nonpayable"},{"type":"function","name":"withdrawRoomTokens","inputs":[{"name":"roomId","type":"uint256","internalType":"uint256"}],"outputs":[],"stateMutability":"nonpayable"},{"type":"event","name":"Approval","inputs":[{"name":"owner","type":"address","indexed":true,"internalType":"address"},{"name":"approved","type":"address","indexed":true,"internalType":"address"},{"name":"tokenId","type":"uint256","indexed":true,"internalType":"uint256"}],"anonymous":false},{"type":"event","name":"ApprovalForAll","inputs":[{"name":"owner","type":"address","indexed":true,"internalType":"address"},{"name":"operator","type":"address","indexed":true,"internalType":"address"},{"name":"approved","type":"bool","indexed":false,"internalType":"bool"}],"anonymous":false},{"type":"event","name":"CrossChainPaymentReceived","inputs":[{"name":"sourceChainSelector","type":"uint64","indexed":false,"internalType":"uint64"},{"name":"user","type":"address","indexed":false,"internalType":"address"},{"name":"roomId","type":"uint256","indexed":false,"internalType":"uint256"},{"name":"amount","type":"uint256","indexed":false,"internalType":"uint256"}],"anonymous":false},{"type":"event","name":"PaymentReceived","inputs":[{"name":"user","type":"address","indexed":false,"internalType":"address"},{"name":"roomId","type":"uint256","indexed":false,"internalType":"uint256"},{"name":"amount","type":"uint256","indexed":false,"internalType":"uint256"}],"anonymous":false},{"type":"event","name":"RoleAdminChanged","inputs":[{"name":"role","type":"bytes32","indexed":true,"internalType":"bytes32"},{"name":"previousAdminRole","type":"bytes32","indexed":true,"internalType":"bytes32"},{"name":"newAdminRole","type":"bytes32","indexed":true,"internalType":"bytes32"}],"anonymous":false},{"type":"event","name":"RoleGranted","inputs":[{"name":"role","type":"bytes32","indexed":true,"internalType":"bytes32"},{"name":"account","type":"address","indexed":true,"internalType":"address"},{"name":"sender","type":"address","indexed":true,"internalType":"address"}],"anonymous":false},{"type":"event","name":"RoleRevoked","inputs":[{"name":"role","type":"bytes32","indexed":true,"internalType":"bytes32"},{"name":"account","type":"address","indexed":true,"internalType":"address"},{"name":"sender","type":"address","indexed":true,"internalType":"address"}],"anonymous":false},{"type":"event","name":"RoomCreated","inputs":[{"name":"roomId","type":"uint256","indexed":true,"internalType":"uint256"},{"name":"creator","type":"address","indexed":true,"internalType":"address"},{"name":"isPublic","type":"bool","indexed":false,"internalType":"bool"}],"anonymous":false},{"type":"event","name":"SubscriberCountChanged","inputs":[{"name":"roomId","type":"uint256","indexed":true,"internalType":"uint256"},{"name":"newCount","type":"uint256","indexed":false,"internalType":"uint256"}],"anonymous":false},{"type":"event","name":"SubscriptionCancelled","inputs":[{"name":"user","type":"address","indexed":true,"internalType":"address"},{"name":"roomId","type":"uint256","indexed":true,"internalType":"uint256"}],"anonymous":false},{"type":"event","name":"SubscriptionUpdated","inputs":[{"name":"user","type":"address","indexed":true,"internalType":"address"},{"name":"roomId","type":"uint256","indexed":true,"internalType":"uint256"},{"name":"expirationTimestamp","type":"uint256","indexed":false,"internalType":"uint256"}],"anonymous":false},{"type":"event","name":"TokensWithdrawn","inputs":[{"name":"roomId","type":"uint256","indexed":true,"internalType":"uint256"},{"name":"token","type":"address","indexed":false,"internalType":"address"},{"name":"amount","type":"uint256","indexed":false,"internalType":"uint256"}],"anonymous":false},{"type":"event","name":"Transfer","inputs":[{"name":"from","type":"address","indexed":true,"internalType":"address"},{"name":"to","type":"address","indexed":true,"internalType":"address"},{"name":"tokenId","type":"uint256","indexed":true,"internalType":"uint256"}],"anonymous":false},{"type":"error","name":"AccessControlBadConfirmation","inputs":[]},{"type":"error","name":"AccessControlUnauthorizedAccount","inputs":[{"name":"account","type":"address","internalType":"address"},{"name":"neededRole","type":"bytes32","internalType":"bytes32"}]},{"type":"error","name":"ERC721IncorrectOwner","inputs":[{"name":"sender","type":"address","internalType":"address"},{"name":"tokenId","type":"uint256","internalType":"uint256"},{"name":"owner","type":"address","internalType":"address"}]},{"type":"error","name":"ERC721InsufficientApproval","inputs":[{"name":"operator","type":"address","internalType":"address"},{"name":"tokenId","type":"uint256","internalType":"uint256"}]},{"type":"error","name":"ERC721InvalidApprover","inputs":[{"name":"approver","type":"address","internalType":"address"}]},{"type":"error","name":"ERC721InvalidOperator","inputs":[{"name":"operator","type":"address","internalType":"address"}]},{"type":"error","name":"ERC721InvalidOwner","inputs":[{"name":"owner","type":"address","internalType":"address"}]},{"type":"error","name":"ERC721InvalidReceiver","inputs":[{"name":"receiver","type":"address","internalType":"address"}]},{"type":"error","name":"ERC721InvalidSender","inputs":[{"name":"sender","type":"address","internalType":"address"}]},{"type":"error","name":"ERC721NonexistentToken","inputs":[{"name":"tokenId","type":"uint256","internalType":"uint256"}]},{"type":"error","name":"InvalidRouter","inputs":[{"name":"router","type":"address","internalType":"address"}]}],"bytecode":{"object":"0x60a06040523480156200001157600080fd5b506040516200307e3803806200307e8339810160408190526200003491620001d0565b806040518060400160405280600c81526020016b43686f776c697665526f6f6d60a01b8152506040518060400160405280600481526020016343484f5760e01b8152508160009081620000889190620002b4565b506001620000978282620002b4565b5050506001600160a01b038116620000c9576040516335fdcccd60e21b81526000600482015260240160405180910390fd5b6001600160a01b03166080526007829055620000e76000336200011d565b50620001147f241ecf16d79d0f8dbfb92cbc07fe17840425976cf0667f022fe9877caa831b08336200011d565b50505062000380565b60008281526006602090815260408083206001600160a01b038516845290915281205460ff16620001c65760008381526006602090815260408083206001600160a01b03861684529091529020805460ff191660011790556200017d3390565b6001600160a01b0316826001600160a01b0316847f2f8788117e7eff1d82e926ec794901d17c78024a50270940304540a733656f0d60405160405180910390a4506001620001ca565b5060005b92915050565b60008060408385031215620001e457600080fd5b825160208401519092506001600160a01b03811681146200020457600080fd5b809150509250929050565b634e487b7160e01b600052604160045260246000fd5b600181811c908216806200023a57607f821691505b6020821081036200025b57634e487b7160e01b600052602260045260246000fd5b50919050565b601f821115620002af57600081815260208120601f850160051c810160208610156200028a5750805b601f850160051c820191505b81811015620002ab5782815560010162000296565b5050505b505050565b81516001600160401b03811115620002d057620002d06200020f565b620002e881620002e1845462000225565b8462000261565b602080601f831160018114620003205760008415620003075750858301515b600019600386901b1c1916600185901b178555620002ab565b600085815260208120601f198616915b82811015620003515788860151825594840194600190910190840162000330565b5085821015620003705787850151600019600388901b60f8161c191681555b5050505050600190811b01905550565b608051612cdb620003a3600039600081816106870152610e850152612cdb6000f3fe6080604052600436106102305760003560e01c806391d148541161012e578063c6dcaf6c116100ab578063e086e5ec1161006f578063e086e5ec146107ac578063e985e9c5146107c1578063ec87621c146107e1578063f21aa48514610815578063fcce178a1461082b57600080fd5b8063c6dcaf6c1461070b578063c87b56dd14610721578063c95d6edc14610741578063cca5145414610779578063d547741f1461078c57600080fd5b8063af6c0b64116100f2578063af6c0b6414610658578063b0f479a114610678578063b5cb3819146106ab578063b88d4fde146106cb578063c6530e41146106eb57600080fd5b806391d14854146105ce57806395d89b41146105ee5780639b537d1f14610603578063a217fddf14610623578063a22cb4651461063857600080fd5b80632f2ff15d116101bc5780634e3111c9116101805780634e3111c9146105215780636352211e1461054e57806364611bad1461056e57806370a082311461058e57806385572ffb146105ae57600080fd5b80632f2ff15d14610472578063304805371461049257806336568abe146104b25780633d084a80146104d257806342842e0e1461050157600080fd5b80631bae0ac8116102035780631bae0ac8146102e6578063212350831461038257806323b872dd146103a2578063248a9ca3146103c2578063294550de1461040057600080fd5b806301ffc9a71461023557806306fdde031461026a578063081812fc1461028c578063095ea7b3146102c4575b600080fd5b34801561024157600080fd5b50610255610250366004612563565b61084b565b60405190151581526020015b60405180910390f35b34801561027657600080fd5b5061027f6108ad565b60405161026191906125d0565b34801561029857600080fd5b506102ac6102a73660046125e3565b61093f565b6040516001600160a01b039091168152602001610261565b3480156102d057600080fd5b506102e46102df366004612611565b610968565b005b3480156102f257600080fd5b506103456103013660046125e3565b60096020526000908152604090208054600182015460028301546003840154600490940154929391926001600160a01b03821692600160a01b90920460ff16919086565b6040805196875260208701959095526001600160a01b039093169385019390935215156060840152608083019190915260a082015260c001610261565b34801561038e57600080fd5b506102e461039d3660046125e3565b610977565b3480156103ae57600080fd5b506102e46103bd36600461263d565b610a1c565b3480156103ce57600080fd5b506103f26103dd3660046125e3565b60009081526006602052604090206001015490565b604051908152602001610261565b34801561040c57600080fd5b5061042061041b3660046125e3565b610aac565b604051610261919081518152602080830151908201526040808301516001600160a01b0316908201526060808301511515908201526080808301519082015260a0918201519181019190915260c00190565b34801561047e57600080fd5b506102e461048d36600461267e565b610b86565b34801561049e57600080fd5b506102e46104ad3660046125e3565b610bab565b3480156104be57600080fd5b506102e46104cd36600461267e565b610bdb565b3480156104de57600080fd5b506102556104ed3660046125e3565b600090815260096020526040902054151590565b34801561050d57600080fd5b506102e461051c36600461263d565b610c13565b34801561052d57600080fd5b5061054161053c3660046126ae565b610c2e565b60405161026191906126cb565b34801561055a57600080fd5b506102ac6105693660046125e3565b610c9a565b34801561057a57600080fd5b506102e4610589366004612611565b610ca5565b34801561059a57600080fd5b506103f26105a93660046126ae565b610e32565b3480156105ba57600080fd5b506102e46105c936600461270f565b610e7a565b3480156105da57600080fd5b506102556105e936600461267e565b610ed9565b3480156105fa57600080fd5b5061027f610f04565b34801561060f57600080fd5b506103f261061e3660046125e3565b610f13565b34801561062f57600080fd5b506103f2600081565b34801561064457600080fd5b506102e4610653366004612758565b610f54565b34801561066457600080fd5b506105416106733660046126ae565b610f5f565b34801561068457600080fd5b507f00000000000000000000000000000000000000000000000000000000000000006102ac565b3480156106b757600080fd5b506103f26106c63660046125e3565b610f6e565b3480156106d757600080fd5b506102e46106e6366004612889565b610fb3565b3480156106f757600080fd5b50610255610706366004612611565b610fca565b34801561071757600080fd5b506103f260075481565b34801561072d57600080fd5b5061027f61073c3660046125e3565b61101e565b34801561074d57600080fd5b506103f261075c366004612611565b600b60209081526000928352604080842090915290825290205481565b6103f26107873660046128f5565b611093565b34801561079857600080fd5b506102e46107a736600461267e565b6111b5565b3480156107b857600080fd5b506102e46111da565b3480156107cd57600080fd5b506102556107dc366004612937565b611274565b3480156107ed57600080fd5b506103f27f241ecf16d79d0f8dbfb92cbc07fe17840425976cf0667f022fe9877caa831b0881565b34801561082157600080fd5b506103f260085481565b34801561083757600080fd5b506102e46108463660046125e3565b6112a2565b60006108568261149b565b8061087157506001600160e01b031982166380ac58cd60e01b145b8061088c57506001600160e01b03198216637965db0b60e01b145b806108a757506001600160e01b031982166301ffc9a760e01b145b92915050565b6060600080546108bc90612965565b80601f01602080910402602001604051908101604052809291908181526020018280546108e890612965565b80156109355780601f1061090a57610100808354040283529160200191610935565b820191906000526020600020905b81548152906001019060200180831161091857829003601f168201915b5050505050905090565b600061094a826114d1565b506000828152600460205260409020546001600160a01b03166108a7565b61097382823361150a565b5050565b610985600b600a3384611517565b600081815260096020526040902061099c906116de565b604051819033907f06aa12c0ad65927b4a753d119c26e490d3c4a4e11cb631b43131a709dc1e591790600090a3807f153f58e8e552bde3aa7f829e7922fdc0c926d758dc835488f77d4fb42e7a92df6009600084815260200190815260200160002060040154604051610a1191815260200190565b60405180910390a250565b6001600160a01b038216610a4b57604051633250574960e11b8152600060048201526024015b60405180910390fd5b6000610a58838333611702565b9050836001600160a01b0316816001600160a01b031614610aa6576040516364283d7b60e01b81526001600160a01b0380861660048301526024820184905282166044820152606401610a42565b50505050565b610af06040518060c00160405280600081526020016000815260200160006001600160a01b0316815260200160001515815260200160008152602001600081525090565b600082815260096020526040902054610b1b5760405162461bcd60e51b8152600401610a429061299f565b50600090815260096020908152604091829020825160c0810184528154815260018201549281019290925260028101546001600160a01b03811693830193909352600160a01b90920460ff16151560608201526003820154608082015260049091015460a082015290565b600082815260066020526040902060010154610ba1816117fb565b610aa68383611805565b7f241ecf16d79d0f8dbfb92cbc07fe17840425976cf0667f022fe9877caa831b08610bd5816117fb565b50600755565b6001600160a01b0381163314610c045760405163334bd91960e11b815260040160405180910390fd5b610c0e8282611899565b505050565b610c0e83838360405180602001604052806000815250610fb3565b6001600160a01b0381166000908152600a6020908152604091829020805483518184028101840190945280845260609392830182828015610c8e57602002820191906000526020600020905b815481526020019060010190808311610c7a575b50505050509050919050565b60006108a7826114d1565b60008181526009602052604081208054909103610cd45760405162461bcd60e51b8152600401610a429061299f565b6002810154600160a01b900460ff16158015610cf4575060008160010154115b15610e2857600281015460018201546040516323b872dd60e01b815233600482015230602482015260448101919091526001600160a01b039091169081906323b872dd906064016020604051808303816000875af1158015610d5a573d6000803e3d6000fd5b505050506040513d601f19601f82011682018060405250810190610d7e91906129cc565b610dca5760405162461bcd60e51b815260206004820152601760248201527f5061796d656e74207472616e73666572206661696c65640000000000000000006044820152606401610a42565b610dd8828360010154611906565b6001820154604080516001600160a01b03871681526020810186905280820192909252517f5677b5d4cf976ac32defbd95a6a5aaf0d1fee450a11fc26f3c11aae6e6c33d069181900360600190a1505b610c0e8383611923565b60006001600160a01b038216610e5e576040516322718ad960e21b815260006004820152602401610a42565b506001600160a01b031660009081526003602052604090205490565b336001600160a01b037f00000000000000000000000000000000000000000000000000000000000000001614610ec5576040516335fdcccd60e21b8152336004820152602401610a42565b610ed6610ed182612ab3565b6119e6565b50565b60009182526006602090815260408084206001600160a01b0393909316845291905290205460ff1690565b6060600180546108bc90612965565b600081815260096020526040812054610f3e5760405162461bcd60e51b8152600401610a429061299f565b5060009081526009602052604090206004015490565b610973338383611bf4565b60606108a7600a600b84611c93565b6040516e524f4f4d5f41444d494e5f524f4c4560881b6020820152602f8101829052600090604f01604051602081830303815290604052805190602001209050919050565b610fbe848484610a1c565b610aa684848484611dfb565b600081815260096020526040812060020154600160a01b900460ff1615610ff3575060016108a7565b506001600160a01b03919091166000908152600b602090815260408083209383529290522054421090565b6060611029826114d1565b50600061104160408051602081019091526000815290565b90506000815111611061576040518060200160405280600081525061108c565b8061106b84611f1d565b60405160200161107c929190612b60565b6040516020818303038152906040525b9392505050565b60006007543410156110df5760405162461bcd60e51b8152602060048201526015602482015274125b9cdd59999a58da595b9d08115512081cd95b9d605a1b6044820152606401610a42565b6008546000906110f490600990878787611fb0565b6008819055905061110533826120bb565b600061111082610f6e565b905061111c8133611805565b5061112b600b600a3385612120565b506040518615158152339083907f9885ea126188c43cc329e45aa9539d799811f0c00053a8f1db943aad926551e29060200160405180910390a36007543411156111ac5760075433906108fc906111829034612ba5565b6040518115909202916000818181858888f193505050501580156111aa573d6000803e3d6000fd5b505b50949350505050565b6000828152600660205260409020600101546111d0816117fb565b610aa68383611899565b7f241ecf16d79d0f8dbfb92cbc07fe17840425976cf0667f022fe9877caa831b08611204816117fb565b47806112475760405162461bcd60e51b81526020600482015260126024820152714e6f2045544820746f20776974686472617760701b6044820152606401610a42565b604051339082156108fc029083906000818181858888f19350505050158015610c0e573d6000803e3d6000fd5b6001600160a01b03918216600090815260056020908152604080832093909416825291909152205460ff1690565b60006112ad82610f6e565b90506112b98133610ed9565b6113055760405162461bcd60e51b815260206004820152601c60248201527f43616c6c6572206973206e6f742074686520726f6f6d2061646d696e000000006044820152606401610a42565b600082815260096020526040812080549091036113345760405162461bcd60e51b8152600401610a429061299f565b60008160030154116113805760405162461bcd60e51b81526020600482015260156024820152744e6f20746f6b656e7320746f20776974686472617760581b6044820152606401610a42565b600381018054600091829055600283015460405163a9059cbb60e01b8152336004820152602481018390529192506001600160a01b031690819063a9059cbb906044016020604051808303816000875af11580156113e2573d6000803e3d6000fd5b505050506040513d601f19601f8201168201806040525081019061140691906129cc565b61144a5760405162461bcd60e51b8152602060048201526015602482015274151bdad95b881d1c985b9cd9995c8819985a5b1959605a1b6044820152606401610a42565b6002830154604080516001600160a01b0390921682526020820184905286917f3f5fbaf86658fdadee77f1d46e7f8a72424ad9839eda6a1dc6eb0a4228e4226e910160405180910390a25050505050565b60006001600160e01b031982166385572ffb60e01b14806108a757506001600160e01b031982166301ffc9a760e01b1492915050565b6000818152600260205260408120546001600160a01b0316806108a757604051637e27328960e01b815260048101849052602401610a42565b610c0e83838360016121d2565b6001600160a01b03821660009081526020858152604080832084845290915290205461157e5760405162461bcd60e51b815260206004820152601660248201527527379030b1ba34bb329039bab139b1b934b83a34b7b760511b6044820152606401610a42565b6001600160a01b03821660009081526020858152604080832084845290915281208190555b6001600160a01b0383166000908152602085905260409020548110156116d7576001600160a01b03831660009081526020859052604090208054839190839081106115f0576115f0612bb8565b9060005260206000200154036116c5576001600160a01b0383166000908152602085905260409020805461162690600190612ba5565b8154811061163657611636612bb8565b9060005260206000200154846000856001600160a01b03166001600160a01b03168152602001908152602001600020828154811061167657611676612bb8565b60009182526020808320909101929092556001600160a01b038516815290859052604090208054806116aa576116aa612bce565b600190038181906000526020600020016000905590556116d7565b806116cf81612be4565b9150506115a3565b5050505050565b600481015415610ed6576004810180549060006116fa83612bfd565b919050555050565b6000828152600260205260408120546001600160a01b039081169083161561172f5761172f8184866122d8565b6001600160a01b0381161561176d5761174c6000856000806121d2565b6001600160a01b038116600090815260036020526040902080546000190190555b6001600160a01b0385161561179c576001600160a01b0385166000908152600360205260409020805460010190555b60008481526002602052604080822080546001600160a01b0319166001600160a01b0389811691821790925591518793918516917fddf252ad1be2c89b69c2b068fc378daa952ba7f163c4a11628f55a4df523b3ef91a4949350505050565b610ed6813361233c565b60006118118383610ed9565b6118915760008381526006602090815260408083206001600160a01b03861684529091529020805460ff191660011790556118493390565b6001600160a01b0316826001600160a01b0316847f2f8788117e7eff1d82e926ec794901d17c78024a50270940304540a733656f0d60405160405180910390a45060016108a7565b5060006108a7565b60006118a58383610ed9565b156118915760008381526006602090815260408083206001600160a01b0386168085529252808320805460ff1916905551339286917ff6391f5c32d9c69d2a47ea670b442974b53935d1edc7fd64eb21e047a839171b9190a45060016108a7565b8082600301600082825461191a9190612c14565b90915550505050565b6000611933600b600a8585612120565b600083815260096020526040902090915061194d90612375565b81836001600160a01b03167f8a7841d9a6944c96ce47d4b1fee6f23d6d297648fbc002439e23ddcdf0b1ca2c8360405161198991815260200190565b60405180910390a3817f153f58e8e552bde3aa7f829e7922fdc0c926d758dc835488f77d4fb42e7a92df60096000858152602001908152602001600020600401546040516119d991815260200190565b60405180910390a2505050565b806080015151600114611a3b5760405162461bcd60e51b815260206004820152601960248201527f4578706563746564203120746f6b656e207472616e73666572000000000000006044820152606401610a42565b60008160800151600081518110611a5457611a54612bb8565b602002602001015160000151905060008260800151600081518110611a7b57611a7b612bb8565b60200260200101516020015190506000808460600151806020019051810190611aa49190612c27565b60008181526009602052604090206002810154929450909250906001600160a01b03868116911614611b185760405162461bcd60e51b815260206004820152601860248201527f496e636f727265637420746f6b656e20726563656976656400000000000000006044820152606401610a42565b80600101548414611b755760405162461bcd60e51b815260206004820152602160248201527f496e636f727265637420737562736372697074696f6e2066656520616d6f756e6044820152601d60fa1b6064820152608401610a42565b611b7f8185611906565b6020808701516040805167ffffffffffffffff90921682526001600160a01b03861692820192909252908101839052606081018590527f97114c508b4468f306d887371a63cebdeb18756d2205777eba7f0633635ecaaa9060800160405180910390a1611bec8383611923565b505050505050565b6001600160a01b038216611c2657604051630b61174360e31b81526001600160a01b0383166004820152602401610a42565b6001600160a01b03838116600081815260056020908152604080832094871680845294825291829020805460ff191686151590811790915591519182527f17307eab39ab6107e8899845ad3d59bd9653f200f220920489ca2b5937696c31910160405180910390a3505050565b6001600160a01b038116600090815260208481526040808320805482518185028101850190935280835260609493830182828015611cf057602002820191906000526020600020905b815481526020019060010190808311611cdc575b505050505090506000815167ffffffffffffffff811115611d1357611d13612786565b604051908082528060200260200182016040528015611d3c578160200160208202803683370190505b5090506000805b8351811015611def576001600160a01b03861660009081526020889052604081208551429290879085908110611d7b57611d7b612bb8565b60200260200101518152602001908152602001600020541115611ddd57838181518110611daa57611daa612bb8565b6020026020010151838381518110611dc457611dc4612bb8565b602090810291909101015281611dd981612be4565b9250505b80611de781612be4565b915050611d43565b50815295945050505050565b6001600160a01b0383163b15610aa657604051630a85bd0160e11b81526001600160a01b0384169063150b7a0290611e3d903390889087908790600401612c55565b6020604051808303816000875af1925050508015611e78575060408051601f3d908101601f19168201909252611e7591810190612c88565b60015b611ee1573d808015611ea6576040519150601f19603f3d011682016040523d82523d6000602084013e611eab565b606091505b508051600003611ed957604051633250574960e11b81526001600160a01b0385166004820152602401610a42565b805181602001fd5b6001600160e01b03198116630a85bd0160e11b146116d757604051633250574960e11b81526001600160a01b0385166004820152602401610a42565b60606000611f2a83612387565b600101905060008167ffffffffffffffff811115611f4a57611f4a612786565b6040519080825280601f01601f191660200182016040528015611f74576020820181803683370190505b5090508181016020015b600019016f181899199a1a9b1b9c1cb0b131b232b360811b600a86061a8153600a8504945084611f7e57509392505050565b6000831580611fcf575082158015611fcf57506001600160a01b038216155b61201b5760405162461bcd60e51b815260206004820152601c60248201527f496e76616c6964207075626c696320726f6f6d2073657474696e6773000000006044820152606401610a42565b600061202686612be4565b6040805160c08101825282815260208082019788526001600160a01b0396871682840190815298151560608301908152600060808401818152600160a086018181528884529e90945294902092518355975190820155965160028801805497511515600160a01b026001600160a81b031990981691909616179590951790935550509051600383015592516004909101555090565b6001600160a01b0382166120e557604051633250574960e11b815260006004820152602401610a42565b60006120f383836000611702565b90506001600160a01b03811615610c0e576040516339e3563760e11b815260006004820152602401610a42565b6001600160a01b0382166000908152602085815260408083208484529091528120548142821061215c5761215762278d0083612c14565b612169565b61216962278d0042612c14565b6001600160a01b0386166000908152602089815260408083208884529091529020819055905061219a86868661245f565b6121c8576001600160a01b038516600090815260208781526040822080546001810182559083529120018490555b9695505050505050565b80806121e657506001600160a01b03821615155b156122a85760006121f6846114d1565b90506001600160a01b038316158015906122225750826001600160a01b0316816001600160a01b031614155b801561223557506122338184611274565b155b1561225e5760405163a9fbf51f60e01b81526001600160a01b0384166004820152602401610a42565b81156122a65783856001600160a01b0316826001600160a01b03167f8c5be1e5ebec7d5bd14f71427d1e84f3dd0314c0f7b2291e5b200ac8c7c3b92560405160405180910390a45b505b5050600090815260046020526040902080546001600160a01b0319166001600160a01b0392909216919091179055565b6122e38383836124e7565b610c0e576001600160a01b03831661231157604051637e27328960e01b815260048101829052602401610a42565b60405163177e802f60e01b81526001600160a01b038316600482015260248101829052604401610a42565b6123468282610ed9565b6109735760405163e2517d3f60e01b81526001600160a01b038216600482015260248101839052604401610a42565b6004810180549060006116fa83612be4565b60008072184f03e93ff9f4daa797ed6e38ed64bf6a1f0160401b83106123c65772184f03e93ff9f4daa797ed6e38ed64bf6a1f0160401b830492506040015b6d04ee2d6d415b85acef810000000083106123f2576d04ee2d6d415b85acef8100000000830492506020015b662386f26fc10000831061241057662386f26fc10000830492506010015b6305f5e1008310612428576305f5e100830492506008015b612710831061243c57612710830492506004015b6064831061244e576064830492506002015b600a83106108a75760010192915050565b6000805b6001600160a01b0384166000908152602086905260409020548110156124dc576001600160a01b03841660009081526020869052604090208054849190839081106124b0576124b0612bb8565b9060005260206000200154036124ca57600191505061108c565b806124d481612be4565b915050612463565b506000949350505050565b60006001600160a01b038316158015906125455750826001600160a01b0316846001600160a01b0316148061252157506125218484611274565b8061254557506000828152600460205260409020546001600160a01b038481169116145b949350505050565b6001600160e01b031981168114610ed657600080fd5b60006020828403121561257557600080fd5b813561108c8161254d565b60005b8381101561259b578181015183820152602001612583565b50506000910152565b600081518084526125bc816020860160208601612580565b601f01601f19169290920160200192915050565b60208152600061108c60208301846125a4565b6000602082840312156125f557600080fd5b5035919050565b6001600160a01b0381168114610ed657600080fd5b6000806040838503121561262457600080fd5b823561262f816125fc565b946020939093013593505050565b60008060006060848603121561265257600080fd5b833561265d816125fc565b9250602084013561266d816125fc565b929592945050506040919091013590565b6000806040838503121561269157600080fd5b8235915060208301356126a3816125fc565b809150509250929050565b6000602082840312156126c057600080fd5b813561108c816125fc565b6020808252825182820181905260009190848201906040850190845b81811015612703578351835292840192918401916001016126e7565b50909695505050505050565b60006020828403121561272157600080fd5b813567ffffffffffffffff81111561273857600080fd5b820160a0818503121561108c57600080fd5b8015158114610ed657600080fd5b6000806040838503121561276b57600080fd5b8235612776816125fc565b915060208301356126a38161274a565b634e487b7160e01b600052604160045260246000fd5b6040805190810167ffffffffffffffff811182821017156127bf576127bf612786565b60405290565b60405160a0810167ffffffffffffffff811182821017156127bf576127bf612786565b604051601f8201601f1916810167ffffffffffffffff8111828210171561281157612811612786565b604052919050565b600082601f83011261282a57600080fd5b813567ffffffffffffffff81111561284457612844612786565b612857601f8201601f19166020016127e8565b81815284602083860101111561286c57600080fd5b816020850160208301376000918101602001919091529392505050565b6000806000806080858703121561289f57600080fd5b84356128aa816125fc565b935060208501356128ba816125fc565b925060408501359150606085013567ffffffffffffffff8111156128dd57600080fd5b6128e987828801612819565b91505092959194509250565b60008060006060848603121561290a57600080fd5b83356129158161274a565b925060208401359150604084013561292c816125fc565b809150509250925092565b6000806040838503121561294a57600080fd5b8235612955816125fc565b915060208301356126a3816125fc565b600181811c9082168061297957607f821691505b60208210810361299957634e487b7160e01b600052602260045260246000fd5b50919050565b602080825260139082015272149bdbdb48191bd95cc81b9bdd08195e1a5cdd606a1b604082015260600190565b6000602082840312156129de57600080fd5b815161108c8161274a565b803567ffffffffffffffff81168114612a0157600080fd5b919050565b600082601f830112612a1757600080fd5b8135602067ffffffffffffffff821115612a3357612a33612786565b612a41818360051b016127e8565b82815260069290921b84018101918181019086841115612a6057600080fd5b8286015b84811015612aa85760408189031215612a7d5760008081fd5b612a8561279c565b8135612a90816125fc565b81528185013585820152835291830191604001612a64565b509695505050505050565b600060a08236031215612ac557600080fd5b612acd6127c5565b82358152612add602084016129e9565b6020820152604083013567ffffffffffffffff80821115612afd57600080fd5b612b0936838701612819565b60408401526060850135915080821115612b2257600080fd5b612b2e36838701612819565b60608401526080850135915080821115612b4757600080fd5b50612b5436828601612a06565b60808301525092915050565b60008351612b72818460208801612580565b835190830190612b86818360208801612580565b01949350505050565b634e487b7160e01b600052601160045260246000fd5b818103818111156108a7576108a7612b8f565b634e487b7160e01b600052603260045260246000fd5b634e487b7160e01b600052603160045260246000fd5b600060018201612bf657612bf6612b8f565b5060010190565b600081612c0c57612c0c612b8f565b506000190190565b808201808211156108a7576108a7612b8f565b60008060408385031215612c3a57600080fd5b8251612c45816125fc565b6020939093015192949293505050565b6001600160a01b03858116825284166020820152604081018390526080606082018190526000906121c8908301846125a4565b600060208284031215612c9a57600080fd5b815161108c8161254d56fea264697066735822122073069ec631b4475a8e7b41dea411b39d28994e3733828ca01fe81890a648591c64736f6c63430008140033","linkReferences":{}},"methodIdentifiers":{"DEFAULT_ADMIN_ROLE()":"a217fddf","MANAGER_ROLE()":"ec87621c","approve(address,uint256)":"095ea7b3","balanceOf(address)":"70a08231","cancelSubscription(uint256)":"21235083","ccipReceive((bytes32,uint64,bytes,bytes,(address,uint256)[]))":"85572ffb","createRoom(bool,uint256,address)":"cca51454","getApproved(uint256)":"081812fc","getRoleAdmin(bytes32)":"248a9ca3","getRoomAdminRole(uint256)":"b5cb3819","getRoomDetails(uint256)":"294550de","getRouter()":"b0f479a1","getSubscriberCount(uint256)":"9b537d1f","getUserActiveSubscriptions(address)":"af6c0b64","getUserSubscribedRooms(address)":"4e3111c9","grantRole(bytes32,address)":"2f2ff15d","hasAccess(address,uint256)":"c6530e41","hasRole(bytes32,address)":"91d14854","isApprovedForAll(address,address)":"e985e9c5","lastRoomID()":"f21aa485","name()":"06fdde03","ownerOf(uint256)":"6352211e","renounceRole(bytes32,address)":"36568abe","revokeRole(bytes32,address)":"d547741f","roomCreationFee()":"c6dcaf6c","roomExists(uint256)":"3d084a80","rooms(uint256)":"1bae0ac8","safeTransferFrom(address,address,uint256)":"42842e0e","safeTransferFrom(address,address,uint256,bytes)":"b88d4fde","setApprovalForAll(address,bool)":"a22cb465","subscribeToRoom(address,uint256)":"64611bad","supportsInterface(bytes4)":"01ffc9a7","symbol()":"95d89b41","tokenURI(uint256)":"c87b56dd","transferFrom(address,address,uint256)":"23b872dd","updateRoomCreationFee(uint256)":"30480537","userSubscriptions(address,uint256)":"c95d6edc","withdrawETH()":"e086e5ec","withdrawRoomTokens(uint256)":"fcce178a"},"id":37}